:0400000080316328C0
:100008007E14803120007F08F700911D2A28F030E7
:10001800F3002630F40064087307F5006508743DA2
:10002800F60075088600760887002400110881000C
:1000380085316925803101302000E4070030E53D35
:1000480065036404031D2A28E401E501921D532871
:10005800F030F3002530F40062087307F5006308F8
:10006800743DF60075088600760887002400190894
:100078008100031022000C1C0314031C46282200D4
:100088000C14482822000C1001302000E207003030
:10009800E33D63036204031D5328E201E3012700E3
:1000A800931D5A2886312926270093112000911183
:1000B8009211101010127708FF007E10090080318D
:1000C80065288631AB268031EC008631AC2680313C
:1000D800ED0021008631AD268031ED008631AE2657
:1000E8008031EE00F0308400243085000030FE00BE
:1000F8000330FF0086316C268031F001F901483069
:100108008400003085002430FE000030FF00863176
:100118006C268031A0308400003085004330FE001A
:100128000030FF0086316C26803120308400013099
:1001380085001230FE000030FF0086316C267E10EC
:1001480020008431BE2C2100E90069082000C2008B
:10015800C30142082100E700200043082100E8000D
:1001680069082000C200C301C401C5014508210077
:10017800E600200044082100E50020004308210093
:10018800E400200042082100E30084315A24803131
:1001980077298431EC248031210067082000C300CE
:1001A800C201FF3042042100C40000302000430493
:1001B800F0280030210067042000C200FF30210031
:1001C80068042000C30021004408200042052100E3
:1001D800C4004508200043052100C500022921006C
:1001E80069082000C20042082100C6000229210037
:1001F80069082000C20042082100C7006908632975
:1002080021006908013E2000C20042082100CD00FB
:100218004D08632901302100C8070030C93D00306E
:10022800CA3D0030CB3D48082000C20021004908E3
:100238002000C30021004A082000C40021004B0808
:100248002000C5001830C536C40CC30CC20C890B7D
:1002580027295D29210048082000C20021004908FB
:100268002000C30021004A082000C40021004B08D8
:100278002000C5001030C536C40CC30CC20C890B55
:100288003F295D29210048082000C20021004908B3
:100298002000C30021004A082000C40021004B08A8
:1002A8002000C5000830C536C40CC30CC20C890B2D
:1002B80057294208C6004608662921004808200038
:1002C800C2004208EB008729781C6E292100D20160
:1002D800D20A70292100D2014D082000C20042082C
:1002E800EB007810872920005F08003A03197D2960
:1002F80087295E0884000A3004020318872986319A
:100308000435053E82007818EB010130DE07003025
:10031800DF3D2100450820005F02031D97292100C9
:10032800440820005E02031C0800FF302100C400BE
:10033800FF30C5002000DE01DF0108002000BC00FE
:100348003C08B100B2013108BA003208BB003C08D1
:10035800B100B201B301B4013408B9003308B800E0
:100368003208B7003108B6008631192681312000DD
:100378002030860000308700483084000030850037
:100388001030B10016001A00B10BC6297018522A95
:10039800612A3A08B200B101FF303104C8000030C8
:1003A8003204E12900303A04B100FF303B04B200C6
:1003B80048083105C80049083205C900612A3C08C7
:1003C800B1003108CA00612A3C08B1003108CB00ED
:1003D800612A3C08B1003108CC004C0821004D06C8
:1003E8000319612A8631452681317010612A20005F
:1003F8004E084E2A4D084E2A50084E2A4F084E2ABB
:1004080052084E2A51084E2A3C08B1003108D30040
:100418005308863178268131612A01302000D407BB
:100428000030D53D0030D63D0030D73D5408B100EE
:100438005508B2005608B3005708B4001830B4364F
:10044800B30CB20CB10C890B232A492A5408B10009
:100458005508B2005608B3005708B4001030B43637
:10046800B30CB20CB10C890B332A492A5408B100D9
:100478005508B2005608B3005708B4000830B4361F
:10048800B30CB20CB10C890B432A3108B5003508FE
:10049800502A5408B1003108EB00612A5F08003A7D
:1004A8000319572A612A5E088400103004020318D1
:1004B800612A85310435CE3E820001302000DE07F6
:1004C8000030DF3D49085F02031D6C2A48085E02C0
:1004D800031C08002100DB01DC010030D6000030DD
:1004E800D5000030D4000030D300FF302000C80011
:1004F800FF30C900DE01DF01701408003F30200022
:10050800A00020082100A0007F302000A0002008C3
:100518002100A1009F302000A00020082100A20097
:10052800AF302000A00020082100A300BF30200029
:10053800A00020082100A400CF302000A00020083F
:100548002100A500D7302000A00020082100A60027
:10055800DF302000A00020082100A700E73020009D
:10056800A00020082100A800EB302000A0002008EF
:100578002100A900EF302000A00020082100AA00D7
:10058800F1302000A00020082100AB00F33020004B
:10059800A00020082100AC00F5302000A0002008B1
:1005A8002100AD00F7302000A00020082100AE0097
:1005B800F8302000A00020082100AF00F93020000A
:1005C800A00020082100B000FA302000A000200878
:1005D8002100B10008003F302000A00020082100C1
:1005E800B2007F302000A00020082100B3009F3017
:1005F8002000A00020082100B400AF302000A00097
:1006080020082100B500BF302000A00020082100EC
:10061800B600CF302000A00020082100B700D73056
:100628002000A00020082100B800DF302000A00032
:1006380020082100B900E7302000A0002008210090
:10064800BA00EB302000A00020082100BB00EF30EA
:100658002000A00020082100BC00F1302000A000EC
:1006680020082100BD00F3302000A0002008210050
:10067800BE00F5302000A00020082100BF00F730A0
:100688002000A00020082100C000F8302000A000B1
:1006980020082100C100F9302000A0002008210016
:1006A800C200FA302000A00020082100C300080082
:1006B8002000A8002808A000A101A201A301210090
:1006C80057082000A400210058082000A500210098
:1006D80059082000A60021005A082000A700083069
:1006E800A435A50DA60DA70D890B742B2408A0040D
:1006F8002508A1042608A2042708A304230821002A
:10070800DA00200022082100D90020002108210059
:10071800D800200020082100D700570A031D9F2B6E
:10072800580A031D9F2B590A031D9F2B5A0A031DA4
:100738009F2B0314080003100800F0302000A900C4
:100748002630AA0060082907860061082A3D87002C
:100758000108AB002B08F9007908A9002908EB006B
:100768000130E0070030E13D61036004031DBE2B4A
:10077800E001E101790883315C238331031CCF2B2D
:100788002000DC01DD0186319626833170132000BC
:10079800DE01DF01D42B01302000DC070030DD3D15
:1007A8005D086D02031DDA2B5C086C020318080053
:1007B800DC01DD018631962670132000DE01DF01A1
:1007C80008002100EA00EB01EC016C08803A2000E7
:1007D800C70080304702031DF42B123021006B0242
:1007E8000318080021006B08A03E86008701010855
:1007F8006A060319082C1C2C79088031A7200800E8
:1008080079088131A221080021006C08003A0319F7
:100818000E2C1C2C6B08003A0319002C013A031902
:10082800042C033A0319222C013A0319222C1C2CFC
:1008380001302100EB070030EC3DE92B0800790876
:100848002000A000A1012008A2002108A300492C33
:100858002208A100A001FF302004EC000030210490
:10086800ED00080000302204A000FF302304A1009E
:100878006C082005EC006D082105ED0008007908DA
:10088800A0002008EA00701708005D08003A031964
:100898004E2C592C5C08013A03192C2C033A0319E5
:1008A800362C013A0319432C592C08002000A601C4
:1008B80000306302023003196202031C772C6208BD
:1008C800FF3EA100FF30633DA200F030A3002530B9
:1008D800A4002108230786002208243D8700010878
:1008E800A5002508842CF030A1002530A20062085C
:1008F800210786006308223D87000108A30023081A
:10090800A600260A03198A2C7810080000308631C0
:100918009F26080021005208031DA22C0310220064
:100928000C1C0314031C9B2C22000C149D2C22006D
:100938000C1020006B08240099000800F0302000FB
:10094800A0002530A10062082007A2006308213D0D
:10095800A30022088600230887006B088100013065
:10096800E2070030E33D63036204031D0800E2016F
:10097800E30108008231EF228431823182228431FE
:100988008431EC24843185314125843186318D26AA
:1009980084318631832684318531EE2584312200E5
:1009A8000C148631382684310318D52C8331A123C1
:1009B8008431701FE52C20006A088331E5238431D7
:1009C800E82C84312324843184318E248431D52C3D
:1009D8007814FF302100C400FF30C500C701C601EC
:1009E8000030CB000030CA000030C9000030C80019
:1009F8008631192684312000203086000030870097
:100A080032308400003085001030B10016001A0022
:100A1800B10B0A2DB701B8012100D201CD01200088
:100A2800DE01DF0108002000A201A3012308803AAB
:100A3800A00081302002031D232D0030220203185C
:100A48000800F0302000A0002630A100220820076E
:100A580086002308213D87008101F030A000253061
:100A6800A1002208200786002308213D8700810174
:100A78000130A2070030A33D1A2D2000E401E50152
:100A8800E201E30185311725853132001F08F0396D
:100A980007389F00C0309E0586315226FF3024005B
:100AA8008E00FF308D00FF308C0021000D170D16D1
:100AB8000E1727000D120D138E1221008D16270018
:100AC8008D128D138C100C11080086315F2685312C
:100AD8000318882DF030F1002530F20020005A0864
:100AE800710786005B08723D8700010824009100A9
:100AF80001302000DA070030DB3D5B035A04031D98
:100B08000800DA01DB010800C83024009100080061
:100B180024001F131B303D0092001A309F003C0038
:100B28001F08E0390F389F0024001D179D161D0867
:100B3800F03901389D001F169C131C131D1221004B
:100B4800921520009211240019082000A000200806
:100B5800A10008002400171319303D00A2003C0032
:100B68002208E0391638A200240015179516150832
:100B7800F039043895001716941314131512210030
:100B8800911520009111240011082000A0002008D0
:100B9800A10008008131CD298131D6298131E3298D
:100BA8008131E8298131ED298131FB298131FE2903
:100BB8008231002A8231022A8231042A8231062AAD
:100BC8008231082A8231112A82312A2A82313A2A2C
:100BD80082314D2A701400302000D7000030D60032
:100BE8000030D5000030D400CC01FF30C800FF3001
:100BF800C900D301CA01CB01CD01CE01D101D20177
:100C080008008031CD288031DD288031F3288031FB
:100C1800FB288131042981310E2981312E29813126
:100C280046298131612981316829483086000030A0
:100C38008700203084000030850010302000B0008C
:100C480016001A00B00B242E080021006D082000A1
:100C5800D80721006E082000D93D5908F20058082D
:100C6800F1008631A5260800200065086106031DED
:100C78003F2E64086006031D432E0314080003106A
:100C8800080000302000D7000030D6000030D50022
:100C98000030D400CC01CA01CB01080023008C012C
:100CA8008D018E0120008C018D018E0121008C01A7
:100CB8008D018E010800200063085B06031D662E67
:100CC80062085A06031D6A2E031408000310080060
:100CD8006400800101310130FE020030FF3B7F08D3
:100CE8007E04031900346D2E2000A0002003031D8C
:100CF800802E22000C14080022000C1008000B1390
:100D08008B138531AE25863185318C250B178B17D2
:100D180008002100101627009115921521001014C3
:100D28000B140800FF302000EC00FF30ED00EA0152
:100D38008631452608002000A000200824009100E4
:100D4800080072082000CE007108CD000800FF34AA
:0E0D5800FF340134003401340034013400341F
:020000040001F9
:08000E008CFFD2FDFFDFFFFFB4
:10E000000000000000000000000000000000000010
:10E010000000000000000000000000000000000000
:10E0200000000000000000000000000000000000F0
:10E0300000000000000000000000000000000000E0
:10E0400000000000000000000000000000000000D0
:10E0500000000000000000000000000000000000C0
:10E0600000000000000000000000000000000000B0
:10E0700000000000000000000000000000000000A0
:10E080000000000000000000000000000000000090
:10E090000000000000000000000000000000000080
:10E0A0000000000000000000000000000000000070
:10E0B0000000000000000000000000000000000060
:10E0C0000000000000000000000000000000000050
:10E0D0000000000000000000000000000000000040
:10E0E0000000000000000000000000000000000030
:10E0F0000000000000000000000000000000000020
:10E10000000000000000000000000000000000000F
:10E1100000000000000000000000000000000000FF
:10E1200000000000000000000000000000000000EF
:10E1300000000000000000000000000000000000DF
:10E1400000000000000000000000000000000000CF
:10E1500000000000000000000000000000000000BF
:10E1600000000000000000000000000000000000AF
:10E17000000000000000000000000000000000009F
:10E18000000000000000000000000000000000008F
:10E19000000000000000000000000000000000007F
:10E1A000000000000000000000000000000000006F
:10E1B000000000000000000000000000000000005F
:10E1C000000000000000000000000000000000004F
:10E1D000000000000000000000000000000000003F
:10E1E000000000000000000000000000000000002F
:10E1F000000000000000000000000000000000001F
:00000001FF
