:0400000080315D28C6
:100008007E14803120007F08F700911D2A28F030E7
:10001800F3002630F40064087307F5006508743DA2
:10002800F60075088600760887002400110881000C
:1000380085318525803101302000E4070030E53D19
:1000480065036404031D2A28E401E5012100520820
:10005800031D4D282000921D4D28F030F300253057
:10006800F40062087307F5006308743DF60075082C
:1000780086007608870024001908810001302000D6
:10008800E2070030E33D63036204031D4D28E201EB
:10009800E3012700931D5228863164262700931117
:1000A800200091119211101010127708FF007E1095
:1000B800090080315F288631A3268031EC00863123
:1000C800A4268031ED0021008631A5268031ED007F
:1000D8008631A6268031EE00F03084002430850079
:1000E8000030FE000330FF00863158268031F001D1
:1000F800F90148308400003085002430FE000030CB
:10010800FF00863158268031A030840000308500F9
:100118004330FE000030FF00863158268031203001
:100128008400013085001230FE000030FF00863167
:1001380058267E1020008431932C2100E90069089C
:100148002000C200C30142082100E7002000430844
:100158002100E80069082000C200C301C401C501EC
:1001680045082100E600200044082100E5002000A1
:1001780043082100E400200042082100E300843104
:100188005B2480316D298431C124803121006708C6
:100198002000C300C201FF3042042100C400003027
:1001A80020004304EA280030210067042000C20030
:1001B800FF30210068042000C3002100440820000B
:1001C80042052100C4004508200043052100C50060
:1001D800FC28210069082000C20042082100C6004E
:1001E800FC28210069082000C20042082100C7003D
:1001F8006908682921006908013E2000C2004208F8
:100208002100CD00672901302100C8070030C93D11
:100218000030CA3D0030CB3D48082000C200210014
:1002280049082000C30021004A082000C40021001A
:100238004B082000C5001830C536C40CC30CC20CCE
:10024800890B20295629210048082000C2002100D6
:1002580049082000C30021004A082000C4002100EA
:100268004B082000C5001030C536C40CC30CC20CA6
:10027800890B38295629210048082000C20021008E
:1002880049082000C30021004A082000C4002100BA
:100298004B082000C5000830C536C40CC30CC20C7E
:1002A800890B50294208C60046086B2921004808D6
:1002B800682922000C10781C65292100D201D20A75
:1002C80067292100D2014D082000C2004208EB0036
:1002D8007D2920005F08003A031973297D295E08EB
:1002E80084000A30040203187D2986310435003E53
:1002F80082000130DE070030DF3D21004508200084
:100308005F02031D8B292100440820005E02031CA4
:100318000800FF302100C400FF30C5002000DE01C6
:10032800DF0108002000BC003C08B100B201310820
:10033800BA003208BB003C08B100B201B301B401F5
:100348003408B9003308B8003208B7003108B600DD
:100358008631142681312000203086000030870045
:1003680048308400003085001030B10016001A00B3
:10037800B10BBA297018462A552A3A08B200B101B9
:10038800FF303104C80000303204D52900303A0467
:10039800B100FF303B04B20048083105C8004908E5
:1003A8003205C900552A3C08B1003108CA00552A4F
:1003B8003C08B1003108CB00552A3C08B10031088F
:1003C800CC004C0821004D060319552A86313126E8
:1003D80081317010552A20004E08422A4D08422AC1
:1003E8005008422A4F08422A5208422A5108422AF3
:1003F8003C08B1003108D30053088631702681319A
:10040800552A01302000D4070030D53D0030D63DB4
:100418000030D73D5408B1005508B2005608B30063
:100428005708B4001830B436B30CB20CB10C890BB1
:10043800172A3D2A5408B1005508B2005608B300DF
:100448005708B4001030B436B30CB20CB10C890B99
:10045800272A3D2A5408B1005508B2005608B300AF
:100468005708B4000830B436B30CB20CB10C890B81
:10047800372A3108B5003508442A5408B100310834
:10048800EB00552A5F08003A03194B2A552A5E08E3
:100498008400103004020318552A85310435C73EFC
:1004A800820001302000DE070030DF3D49085F028E
:1004B800031D602A48085E02031C08002100DB01B6
:1004C800DC010030D6000030D5000030D400003008
:1004D800D300FF302000C800FF30C900DE01DF0173
:1004E800701408003F302000A00020082100A00060
:1004F8007F302000A00020082100A1009F302000AC
:10050800A00020082100A200AF302000A000200891
:100518002100A300BF302000A00020082100A40073
:10052800CF302000A00020082100A500D7302000EF
:10053800A00020082100A600DF302000A00020082D
:100548002100A700E7302000A00020082100A80013
:10055800EB302000A00020082100A900EF30200087
:10056800A00020082100AA00F1302000A0002008E7
:100578002100AB00F3302000A00020082100AC00CF
:10058800F5302000A00020082100AD00F730200041
:10059800A00020082100AE00F8302000A0002008AC
:1005A8002100AF00F9302000A00020082100B00091
:1005B800FA302000A00020082100B10008003F30D8
:1005C8002000A00020082100B2007F302000A000F9
:1005D80020082100B3009F302000A000200821003F
:1005E800B400AF302000A00020082100B500BF30C3
:1005F8002000A00020082100B600CF302000A00075
:1006080020082100B700D7302000A00020082100D2
:10061800B800DF302000A00020082100B900E73032
:100628002000A00020082100BA00EB302000A00024
:1006380020082100BB00EF302000A0002008210086
:10064800BC00F1302000A00020082100BD00F330DC
:100658002000A00020082100BE00F5302000A000E6
:1006680020082100BF00F7302000A000200821004A
:10067800C000F8302000A00020082100C100F93097
:100688002000A00020082100C200FA302000A000AD
:1006980020082100C3000800F0302000A9002630FF
:1006A800AA0060082907860061082A3D870001081A
:1006B800AB002B08F9007908A9002908EB000130E4
:1006C800E0070030E13D7908833196238331031C2C
:1006D8007C2B2000DA01DB01E001E10186318E2666
:1006E800833170132000E401E501DE01DF01812B75
:1006F80001302000DA070030DB3D5B086D02031D86
:10070800872B5A086C0203180800DA01DB01E001A4
:10071800E10186318E2670132000E401E501DE0137
:10072800DF0108002000A8002808A000A101A201FC
:10073800A301210057082000A40021005808200028
:10074800A500210059082000A60021005A08200011
:10075800A7000830A435A50DA60DA70D890BAE2B53
:100768002408A0042508A1042608A2042708A30435
:1007780023082100DA00200022082100D9002000E7
:1007880021082100D800200020082100D700570A9E
:10079800031DD92B580A031DD92B590A031DD92B20
:1007A8005A0A031DD92B03140800031008007908FE
:1007B8002000A000A1012008A2002108A300002C0D
:1007C8002208A100A001FF302004EC000030210421
:1007D800F82B00302204A000FF302304A1006C088D
:1007E8002005EC006D082105ED00102C7908A0000B
:1007F8002008EA007017102C5B08003A0319052C32
:10080800102C5A08013A0319E42B033A0319ED2B6B
:10081800013A0319FA2B102C61036004031D162CEE
:10082800E001E1015D035C04031D0800DC01DD015A
:1008380008002100EA00EB01EC016C08803A200076
:10084800C70080304702031D2C2C123021006B0298
:100858000318080021006B08A03E860087010108E4
:100868006A060319402C542C79088031A12008000D
:10087800790881319621080021006C08003A031993
:10088800462C542C6B08003A0319382C013A0319EA
:100898003C2C033A03195A2C013A03195A2C542CAC
:1008A80001302100EB070030EC3D212C080020002E
:1008B800A60100306302023003196202031C782C7F
:1008C8006208FF3EA100FF30633DA200F030A300A4
:1008D8002530A4002108230786002208243D87002C
:1008E8000108A5002508852CF030A1002530A200BC
:1008F8006208210786006308223D87000108A300DB
:100908002308A600260A03198D2C22000C10781043
:10091800080022000C140030863197260800823126
:10092800E32284318231762284318431C1248431B6
:1009380085311625843186318526843186317B269A
:1009480084318531E725843122000C148631242630
:1009580084310318AA2C833150238431701FBA2C98
:1009680020006A0884311D248431BD2C8331DB23A7
:10097800843185313E258431AA2C7814FF3021003A
:10098800C400FF30C500C701C6010030CB000030ED
:10099800CA000030C9000030C800863114268431EE
:1009A800200020308600003087003230840000307C
:1009B80085001030B10016001A00B10BDF2CB7010A
:1009C800B8012100D201CD012000DE01DF010800BD
:1009D8002000A201A3012308803AA0008130200250
:1009E800031DF82C0030220203180800F030200004
:1009F800A0002630A1002208200786002308213DF8
:100A080087008101F030A0002530A10022082007CE
:100A180086002308213D870081010130A2070030AC
:100A2800A33DEF2C2000E401E501E201E30184315C
:100A3800EC24853132001F08F03907389F00C03098
:100A48009E0586313E26FF3024008E00FF308D0043
:100A5800FF308C0021000D170D160E1727000D1200
:100A68000D138E1221008D1627008D128D138C10F8
:100A78000C11080021005208031D472D20006B08A7
:100A8800240099000800F0302000A0002530A100C3
:100A980062082007A2006308213DA30022088600FF
:100AA800230887006B0881000130E2070030E33D2E
:100AB80063036204031D0800E201E3010800240047
:100AC8001F131B303D0092001A309F003C001F0886
:100AD800E0390F389F0024001D179D161D08F039B6
:100AE80001389D001F169C131C131D12210092151E
:100AF80020009211240019082000A0002008A1005D
:100B0800080086314B2685310318A42DF030F100FA
:100B18002530F20020005C08710786005D08723DF0
:100B2800870001082400910001302000DC07003014
:100B3800DD3D5D035C04031D0800DC01DD010800E8
:100B48002400910108002400171319303D00A20069
:100B58003C002208E0391638A20024001517951623
:100B68001508F03904389500171694131413151244
:100B78002100911520009111240011082000A000E7
:100B88002008A10008008131C1298131CA29813199
:100B9800D7298131DC298131E1298131EF2981315E
:100BA800F2298131F4298131F6298131F8298131FD
:100BB800FA298131FC298231052A82311E2A8231A3
:100BC8002E2A8231412A701400302000D7000030CC
:100BD800D6000030D5000030D400CC01FF30C8006A
:100BE800FF30C900D301CA01CB01CD01CE01D1012B
:040BF800D20108001E
:100C00008031C7288031D7288031ED288031F52800
:100C10008031FE28813107298131272981313F29FF
:100C200081315A2981315D294830860000308700A2
:100C3000203084000030850010302000B000160005
:100C40001A00B00B1F2E0800200065086106031D66
:100C50002B2E64086006031D2F2E031408000310BA
:100C6000080000302000D7000030D6000030D5004A
:100C70000030D400CC01CA01CB01080023008C0154
:100C80008D018E0120008C018D018E0121008C01CF
:100C90008D018E010800200063085D06031D522EA1
:100CA00062085C06031D562E03140800031008009A
:100CB0006400800101310130FE020030FF3B7F08FB
:100CC0007E0403190034592E21006D08DD076E08DB
:100CD000DE3D5E08F2005D08F10086319D260800C9
:100CE0002000A0002003031D782E22000C14080011
:100CF00022000C1008000B138B138531A7258631B9
:100D0000853163250B178B1708002100101627006B
:100D100091159215210010140B140800FF302000CB
:100D2000EC00FF30ED00EA0186313126080020009A
:100D3000A000200824009100080072082000CE00C6
:100D40007108CD000800FF34FF3401340034013451
:060D500000340134003400
:020000040001F9
:08000E008CFFD2FDFFDFFFFFB4
:10E000000000000000000000000000000000000010
:10E010000000000000000000000000000000000000
:10E0200000000000000000000000000000000000F0
:10E0300000000000000000000000000000000000E0
:10E0400000000000000000000000000000000000D0
:10E0500000000000000000000000000000000000C0
:10E0600000000000000000000000000000000000B0
:10E0700000000000000000000000000000000000A0
:10E080000000000000000000000000000000000090
:10E090000000000000000000000000000000000080
:10E0A0000000000000000000000000000000000070
:10E0B0000000000000000000000000000000000060
:10E0C0000000000000000000000000000000000050
:10E0D0000000000000000000000000000000000040
:10E0E0000000000000000000000000000000000030
:10E0F0000000000000000000000000000000000020
:10E10000000000000000000000000000000000000F
:10E1100000000000000000000000000000000000FF
:10E1200000000000000000000000000000000000EF
:10E1300000000000000000000000000000000000DF
:10E1400000000000000000000000000000000000CF
:10E1500000000000000000000000000000000000BF
:10E1600000000000000000000000000000000000AF
:10E17000000000000000000000000000000000009F
:10E18000000000000000000000000000000000008F
:10E19000000000000000000000000000000000007F
:10E1A000000000000000000000000000000000006F
:10E1B000000000000000000000000000000000005F
:10E1C000000000000000000000000000000000004F
:10E1D000000000000000000000000000000000003F
:10E1E000000000000000000000000000000000002F
:10E1F000000000000000000000000000000000001F
:00000001FF
