:0400000080314C28D7
:100008007E14803120007F08F900911D37282400D4
:100018001108F4007408FA007A08031930287D03DF
:10002800FF3A7A07F400F030F5002630F600210098
:1000380059087507F7005A08763DF80077088600D2
:1000480078088700740881008E31E82680310130F5
:100058002100D9070030DA3D21005A035904031D55
:100068003728D901DA012000921D3C28F11092119D
:100078002700931D41288E31492620009111270021
:1000880093112000101210107908FF007E1009004B
:1000980080314E288731FF278031FD0021008E31C5
:1000A8000C268031E0008E310D268031E1008E3142
:1000B8000E268031E2008E310F268031E300F030C9
:1000C8008400243085000030FE000330FF008E31AC
:1000D80055268031F001F101FC01593084000030CF
:1000E80085001630FE000030FF008E315526803125
:1000F800A0308400003085004030FE000030FF0052
:100108008E3155268031203084000130850024301E
:10011800FE000030FF008E3155267E1020008F3102
:10012800A22F2000D7005708CB00CC014B08D500E0
:100138004C08D6005708CB00CC01CD01CE014E08A3
:10014800D4004D08D3004C08D2004B08D1008731A9
:10015800A027803182298731D42780312000550893
:10016800CC00CB01FF304B042100B200003020004E
:100178004C04CD2800305504CB00FF305604CC0089
:100188002100320820004B052100B200330820006E
:100198004C052100B300DB285708CB004B08210091
:1001A800B400DB285708CB004B082100B50020001D
:1001B800570868295708013ECB004B082100BB00AF
:1001C8003B082000682901302100B6070030B73D00
:1001D8000030B83D0030B93D0430B23E860087019A
:1001E800403F2000AF00413FB000423FB100433FD5
:1001F800B2008231C822803120002F08CB0030089D
:10020800CC003108CD003208CE001830CF00CE37F0
:10021800CD0CCC0CCB0CCF0B0B2953290430B23EA0
:1002280086008701403FAF00413FB000423FB10028
:10023800433FB2008231C822803120002F08CB0012
:100248003008CC003108CD003208CE001030CF0085
:10025800CE37CD0CCC0CCB0CCF0B2C29532904302A
:10026800B23E86008701403FAF00413FB000423FA9
:10027800B100433FB2008231C822803120002F08EC
:10028800CB003008CC003108CD003208CE00083051
:10029800CF00CE37CD0CCC0CCB0CCF0B4D294B0857
:1002A800D00050086A290430B23E86008701403FDA
:1002B800AF00413FB000423FB100433FB20082313E
:1002C800C822803120002F08CB004B08EE0092296D
:1002D8007B1C742922000C142100C001C00A782953
:1002E80022000C102100C0013B082000CB004B0865
:1002F800EE007B108E319B268031922920006A08FF
:10030800003A031988299229690884000A300402EE
:100318000318922988310435203E82007B1C9729D6
:100328002000EE01EE0A01302000E9070030EA3D26
:100338002100330820006A02031DA6292100320883
:1003480020006902031C0800FF302100B200FF30C2
:10035800B3002000E901EA0108002000D70057088F
:10036800CB00CC014B08D5004C08D6005708CB0071
:10037800CC01CD01CE014E08D4004D08D3004C0865
:10038800D2004B08D1008E318B26813120002030DD
:100398008600003087005930840000308500103016
:1003A800CB0016001A00CB0BD529F018A42AB32AC3
:1003B8005508CC00CB01FF304B04D90000304C0469
:1003C800F02900305504CB00FF305604CC00590802
:1003D8004B05D9005A084C05DA00B32A5708CB0058
:1003E8004B08DB00B32A5708CB004B08DC00B32AC4
:1003F8005708CB004B08DD005D0821003B060319B8
:10040800B32A8E3110268131F010B32A20005F08FC
:10041800A02A5E08A02A6108A02A6008A02A63080A
:10042800A02A6208A02A5708CB004B08E4006408F9
:100438008E313E268131B32A01302000E507003095
:10044800E63D0030E73D0030E83D0C30593E86007F
:100458008701403FAF00413FB000423FB100433FFA
:10046800B2008231C822813120002F08CB00300829
:10047800CC003108CD003208CE001830CF00CE377E
:10048800CD0CCC0CCB0CCF0B432A8B2A0C30593E0D
:1004980086008701403FAF00413FB000423FB100B6
:1004A800433FB2008231C822813120002F08CB009F
:1004B8003008CC003108CD003208CE001030CF0013
:1004C800CE37CD0CCC0CCB0CCF0B642A8B2A0C303E
:1004D800593E86008701403FAF00413FB000423F90
:1004E800B100433FB2008231C822813120002F0879
:1004F800CB003008CC003108CD003208CE000830DF
:10050800CF00CE37CD0CCC0CCB0CCF0B852A4B08AB
:10051800D0005008A22A0C30593E86008701403F7F
:10052800AF00413FB000423FB100433FB2008231CB
:10053800C822813120002F08CB004B08EE00B32AD7
:100548006A08003A0319A92AB32A690884001030F6
:1005580004020318B32A88310435003E82000130B2
:100568002000E9070030EA3D5A086A02031DBE2A46
:1005780059086902031C0800FF30D900FF30DA006F
:10058800E901EA01F014080000302000CA00003038
:10059800C9000030C8000030C7003208CA0031085E
:1005A800C9003008C8002F08C7000030BA00003062
:1005B800B9000030B8000030B7000030C00000308B
:1005C800BF000030BE000030BD00C501C601CA1B17
:1005D800F72A4A08031DFF2A4908031DFF2A01308C
:1005E80048020318FF2A4A08C0004908BF00480803
:1005F800BE0047081A2B0030A3000030A2000030CC
:10060800A100FF30A0004A08A7004908A600480832
:10061800A5004708A4008431F32482312000230870
:10062800C0002208BF002108BE002008BD0000301D
:10063800A3000030A2000030A100FF30A0004A084B
:10064800A7004908A6004808A5004708A400843167
:100658007124823120002008C7002108C800890DB4
:10066800893B8909C900CA000030C4000030C300B2
:100678000030C2000130C1004608803AB300803023
:100688003302031D492B01304502031C772B200040
:10069800BB01BC013C08803AB3004608803A3302EB
:1006A800031D582B45083B020318772B20004108EF
:1006B800B3004208B4004308B5004408B600083047
:1006C800B335B40DB50DB60D890B642B3608C400CF
:1006D8003508C3003408C2003308C1000130BB0725
:1006E8000030BC3D4E2B20004008A3003F08A2006C
:1006F8003E08A1003D08A0004408A7004308A60042
:100708004208A5004108A4008F31D027823120007B
:100718002008B7072108B83D2208B93D2308BA3D8B
:10072800CA1BA52B4A08031DA02B4908031DA02B93
:1007380001304802031CA52B0130C5070030C63D17
:10074800EB2A3A08B2003908B1003808B000370877
:10075800AF0008002000BB003B08B100B20131081F
:10076800B9003208BA003B08B100B201B301B401C4
:100778003408B8003308B7003208B6003108B500AD
:100788008E318B2683312000203086000030870090
:1007980059308400003085001030B10016001A006E
:1007A800B10BD22BF018192C292C3908B200B10141
:1007B800FF303104D90000303204ED2B0030390409
:1007C800B100FF303A04B20059083105D9005A087F
:1007D8003205DA00292C3B08B1003108DB00292C4E
:1007E8003B08B1003108DC00292C3B08B100310876
:1007F800DD005D0821003B060319072C8E31102609
:100808008331F010292C031022000C1C0314031C44
:10081800102C22000C14122C22000C107014003022
:100828002100C700F030C800292C20006A08003ACF
:1008380003191F2C292C69088400053004020318A9
:10084800292C88310435403E8200701C492C003028
:1008580020006A02053003196902031C492C210093
:1008680048082000A100210047082000A0008F317F
:100878002C278331210049082000B1003108EE00FF
:1008880001302100C7070030C83D01302000E907CA
:100898000030EA3D2100330820006A02031D582C6D
:1008A8002100320820006902031C642CFF3021005B
:1008B800B200FF30B3002000E901EA01F014701023
:1008C800F03021004802FF3003194702031C0800DA
:1008D8002000E901EA01F01408002000AA01A31F82
:1008E800822CA009A109A209A309A00A0319A10A37
:1008F8000319A20A0319A30AAA01AA0AA71F932C7B
:10090800A409A509A609A709A40A0319A50A031990
:10091800A60A0319A70A0130A8002808AA06003069
:10092800AE000030AD000030AC000030AB00230852
:100938002204210420040319DC2CA901A90AA31B01
:10094800B12C0130A035A10DA20DA30D890BA62C49
:100958000130A8002808A907A32C0130AB35AC0D3D
:10096800AD0DAE0D890BB22C23082702031DC62C32
:1009780022082602031DC62C21082502031DC62CA9
:1009880020082402031CD12C2008A4022108A53B1E
:100998002208A63B2308A73B2B140130A336A20C40
:1009A800A10CA00C890BD22C0130A902031DB12C7B
:1009B8002A080319EA2CAB09AC09AD09AE09AB0A40
:1009C8000319AC0A0319AD0A0319AE0A2E08A300CD
:1009D8002D08A2002C08A1002B08A0000800200068
:1009E800AA01A71F042DA409A509A609A709A40AF5
:1009F8000319A50A0319A60A0319A70AAA01AA0A2C
:100A0800A31F112DA009A109A209A309A00A03196E
:100A1800A10A0319A20A0319A30A2308220421041C
:100A2800200403194A2DA901A90AA31B272D013067
:100A3800A035A10DA20DA30D890B1C2D0130A80016
:100A48002808A907192D23082702031D352D220878
:100A58002602031D352D21082502031D352D2008EA
:100A68002402031C3F2D2008A4022108A53B2208CC
:100A7800A63B2308A73B0130A336A20CA10CA00C6F
:100A8800890B402D0130A902031D272D2A080319BF
:100A9800582DA409A509A609A709A40A0319A50A96
:100AA8000319A60A0319A70A2708A3002608A20003
:100AB8002508A1002408A00008003F302000A0005D
:100AC80020082200B2007F302000A0002008220069
:100AD800B3009F302000A00020082200B400AF30EF
:100AE8002000A00020082200B500BF302000A00090
:100AF80020082200B600CF302000A00020082200E5
:100B0800B700D7302000A00020082200B800DF304E
:100B18002000A00020082200B900E7302000A00033
:100B280020082200BA00EB302000A0002008220094
:100B3800BB00EF302000A00020082200BC00F130EC
:100B48002000A00020082200BD00F3302000A000F3
:100B580020082200BE00F5302000A0002008220056
:100B6800BF00F7302000A00020082200C000F830A5
:100B78002000A00020082200C100F9302000A000B9
:100B880020082200C200FA302000A000200822001D
:100B9800C30008003F302000A00020082100A0006A
:100BA8007F302000A00020082100A1009F302000F5
:100BB800A00020082100A200AF302000A0002008DB
:100BC8002100A300BF302000A00020082100A400BD
:100BD800CF302000A00020082100A500D730200039
:100BE800A00020082100A600DF302000A000200877
:100BF8002100A700E7302000A00020082100A8005D
:100C0800EB302000A00020082100A900EF302000D0
:100C1800A00020082100AA00F1302000A000200830
:100C28002100AB00F3302000A00020082100AC0018
:100C3800F5302000A00020082100AD00F73020008A
:100C4800A00020082100AE00F8302000A0002008F5
:100C58002100AF00F9302000A00020082100B000DA
:100C6800FA302000A00020082100B1000800200070
:100C7800AA002A087D07A000A101A10D2008A20052
:100C88002108A3000030A31BFF30A400A500210009
:100C980041082000A600210042082000A7002100EA
:100CA80043082000A800210044082000A9000830BB
:100CB800A635A70DA80DA90D890B5C2E2608A20440
:100CC8002708A3042808A4042908A5042508210046
:100CD800C400200024082100C300200023082100AC
:100CE800C200200022082100C100410A031D872EEE
:100CF800420A031D872E430A031D872E440A031D3B
:100D0800872E031408000310080020006E087D07D2
:100D1800A0002008EE0021004008031DB82E200086
:100D28006E0824009900F114F118982EF030200074
:100D3800A0002530A1006B082007A2006C08213D07
:100D4800A3002208860023088700240019088100D0
:100D580001302000EB070030EC3D6C036B04031DF1
:100D68000800EB01EC010800F0302000A00025305D
:100D7800A1006B082007A2006C08213DA3002208EF
:100D88008600230887006E0881000130EB070030D9
:100D9800EC3D6C036B04031D0800EB01EC0108003B
:100DA800F0302000AB002630AC00210057082000AE
:100DB8002B0786002100580820002C3D87000108D9
:100DC800AD002D08FC007C08AB002B08EE000130BC
:100DD8002100D7070030D83D58035704031DF62ECD
:100DE800D701D8017C0886313B268631031C072FA2
:100DF8002100D501D6018E312A268631F013200034
:100E0800E901EA010C2F01302100D5070030D63D59
:100E1800210056086302031D132F550862020318A8
:100E28000800D501D6018E312A26F0132000E901E9
:100E3800EA0108007C082000A000A1012008A20007
:100E48002108A3004F2F20002208A100A001FF3095
:100E580020042100E2000030200021042100E300EA
:100E68000800003020002204A000FF302304A10065
:100E780021006208200020052100E200630820000C
:100E880021052100E30008007C082000A0002008BC
:100E9800ED00F017080021005608003A0319552FF5
:100EA800602F5508013A0319272F033A0319352FE4
:100EB800013A0319482F602F08002100E400E501DA
:100EC800E6016608803A2000D80080305802031DE9
:100ED800702F1230210065020318080021006508F0
:100EE800323E860001308700010864060319892F05
:100EF800992F7C088031952008007C088131B12128
:100F080008007C088331AE23080021006608003AF7
:100F180003198F2F992F65088400063004020318DF
:100F2800992F88310435343E820001302100E507CD
:100F38000030E63D652F08002000A60100306C0255
:100F4800023003196B02031CBD2F6B08FF3EA10082
:100F5800FF306C3DA200F030A3002530A40021082A
:100F6800230786002208243D87000108A5002508DC
:100F7800CA2FF030A1002530A2006B082107860097
:100F88006C08223D87000108A3002308A600260A52
:100F98000319D02F7B10080001308E311B26080062
:100FA8007B14FF302100B200FF30B300B501B4015B
:100FB8000030B9000030B8000030B7000030B6008B
:100FC8008E318B2687312000203086000030870044
:100FD80032308400003085001030B10016001A004D
:100FE800B10BF22FB701B8012100C001BB012000ED
:100FF800E901EA01080001348131DC298131E52960
:101008008131F2298131F7298131FC2982310A2A7B
:1010180082310D2A82310F2A8231112A8231132A14
:101028008231152A8231172A8231202A82314A2AAE
:1010380082316B2A82318F2A8031AF288031BE28D5
:101048008031D0288031D6288031DE288031E728C9
:1010580081311229813133298131572981316C2914
:1010680087317D2F8731812F87319F2F87319F2FA0
:1010780087319F2F8731852F8331D92B8331E22BFD
:0C1088008331EF2B8331F42B8331F92BE3
:101C180001340034FF34FF342000DD01DB01DC0136
:101C2800080073082000DF007208DE0008002000AA
:101C3800A0002008240091000800210010162700A9
:101C480091159215210010140B140800FF30210083
:101C5800E200FF30E3002000ED018E31102608007D
:101C68000B138B138E31C8268E318F310A270B1731
:101C78008B1708002000A0002003031D462E220019
:101C88000C14080022000C10080021006008CB0783
:101C98006108CC3D4C08F3004B08F2008E31152644
:101CA80008006400800101310130FE020030FF3B72
:101CB8007F087E0403190034562E23008C018D0101
:101CC8008E0120008C018D018E0121008C018D0177
:101CD8008E01080021005A085806031D752E590860
:101CE8005706031D792E031408000310080020006E
:101CF8006C0821005206031D852E20006B08210068
:101D08005106031D892E03140800031008005930DA
:101D180086000030870020308400003085001030B5
:101D28002000B00016001A00B00B962E08000030F4
:101D38002000E8000030E7000030E6000030E50051
:101D4800DD01FF30D900FF30DA00E401DB01DC01FE
:101D5800DE01DF01E201E3010800F0140030200099
:101D6800E8000030E7000030E6000030E500DD0163
:101D7800FF30D900FF30DA00E401DB01DC01DE01CD
:101D8800DF01E201E30108002400171319303D00C8
:101D9800A2003C002208E0391638A20024001517DA
:101DA80095161508F039043895001716941314136E
:101DB800151221009115200091112400110820000E
:101DC800A0002008A10008008E317B268E31031860
:101DD800072FF030F2002530F30021005108720778
:101DE80086005208733D87000108240091000130E5
:101DF8002100D1070030D23D52035104031D0800D1
:101E0800D101D201080024009101080024001F1309
:101E18001B303D0092001A309F003C001F08E0393B
:101E28000F389F0024001D139D161D08F039013836
:101E38009D001F169C131C131D12210092152000D3
:101E48009211240019082000A0002008A100080011
:101E580020002108A2002208A3002008A2002208CE
:101E6800A40031001517200024083100910020003B
:101E78002308310092001514151413082000A2003D
:101E880022082100C900310014082000A2002208FD
:101E98002100CA0008002100D901DA012000EB0165
:101EA800EC018F3178278F3132001F08F03907385D
:101EB8009F00C0309E058E316126FF3024008E00C1
:101EC800FF308D00FF308C0021000D170D160E1706
:101ED80027000D120D138E1221008D1627008D126A
:101EE8008D138C100C1108002000A201A3012308F7
:101EF800803AA00081302002031D842F0030220286
:101F080003180800F0302000A0002630A1002208A5
:101F1800200786002308213D87008101F030A000BA
:101F28002530A1002208200786002308213D8700CC
:101F380081010130A2070030A33D7B2F8531CE25DA
:101F48008F31853161258F318731D4278F318F319A
:101F58004F278F318E3121268F318E3134268F31A4
:101F68008E31B1268F3122000C148E316E268F31BE
:101F78000318B92F8631D4268F31F01FC92F2000BE
:101F88006D08873161278F31CC2F87311E278F311C
:101F9800863189268F31B92F00302000AB00003000
:101FA800AA000030A9000030A800201CE32F240854
:101FB800A8072508A93D2608AA3D2708AB3D0130FA
:101FC800A435A50DA60DA70D890BE42F0130A33666
:101FD800A20CA10CA00C890BEB2F230822042104CE
:101FE8002004031DD92F2B08A3002A08A2002908C2
:101FF800A1002808A000080001340034013400348E
:020000040001F9
:08000E008CFFD2FDFFDFFFFFB4
:10E0000000000000000000000100450043004F0038
:10E0100042004F00540020004C00430043002E00FB
:10E0200000000000000000000200000000000000EE
:10E0300001000000000000000000020000000000DD
:10E0400000000100000000000000000003000300C9
:10E05000010000002800030002000000640003002B
:10E06000030000004800030004000000C800030093
:10E07000050000000000030006000000520003003D
:10E080000700000000000200080000000200090074
:10E09000000002000A00010003000B000000000065
:10E0A00003000C000000000003000D000000B4009D
:10E0B00003000E000000000003000F00000000003D
:10E0C0000300100000000000030011000000000029
:10E0D0000300120000000000030013000000000015
:10E0E0000000000000000000FE0000000000000032
:10E0F0000000000000000000000000000000000020
:10E10000000000000000000000000000000000000F
:10E1100000000000000000000000000000000000FF
:10E1200000000000000000000000000000000000EF
:10E1300000000000000000000000000000000000DF
:10E1400000000000000000000000000000000000CF
:10E1500000000000000000000000000000000000BF
:10E1600000000000000000000000000000000000AF
:10E17000000000000000000000000000000000009F
:10E18000000000000000000000000000000000008F
:10E19000000000000000000000000000000000007F
:10E1A000000000000000000000000000000000006F
:10E1B000000000000000000000000000000000005F
:10E1C000000000000000000000000000000000004F
:10E1D000000000000000000000000000000000003F
:10E1E000000000000000000000000000000000002F
:00000001FF
