:0400000080315228D1
:100008007E14803120007F08F600911D2A28F030E8
:10001800F2002630F30057087207F4005808733DC1
:10002800F50074088600750887002400110881000F
:100038008431FF24803101302000D7070030D83DBB
:1000480058035704031D2A28D701D8013E0803196D
:10005800921D4A28F030F2002530F3005508720747
:10006800F4005608733DF50074088600750887008B
:1000780024001908810001302000D5070030D63D42
:1000880056035504031D4A28D501D6019111921132
:10009800101010127608FF007E10090080315428D5
:1000A800863111268031EE00863112268031EF002C
:1000B800F0308400243085000030FE000330FF005B
:1000C8008531DC258031F70120308400003085003F
:1000D8004030FE000030FF008531DC258031A03043
:1000E8008400003085002830FE000030FF00853194
:1000F800DC257E1020008431362C2100CF004F08EB
:100108002000E700E80167082100CD00200068080A
:100118002100CE004F082000E700E801E901EA01CC
:100128006A082100CB00200069082100CA002000CD
:1001380068082100C900200067082100C800833131
:10014800C72380312000ED182D293C2985317A25D7
:10015800803121004D082000E800E701FF306704E6
:10016800B00000306804C728003021004D0420008A
:10017800E700FF3021004E042000E8003008670542
:10018800B00031086805B100D62821004F082000CA
:10019800E7006708B200D62821004F082000E700D2
:1001A8006708B30021004F082000292921004F08C3
:1001B800013E2000E7006708B90028290130B4078C
:1001C8000030B53D0030B63D0030B73D3408E7009B
:1001D8003508E8003608E9003708EA001830EA363A
:1001E800E90CE80CE70C890BF32819293408E70017
:1001F8003508E8003608E9003708EA001030EA3622
:10020800E90CE80CE70C890B032919293408E700E5
:100218003508E8003608E9003708EA000830EA3609
:10022800E90CE80CE70C890B13296708EB006B084D
:100238002B29340829296D1C2429BE01BE0A252929
:10024800BE0122000C1020003908E7006708DF0013
:100258003C295208003A031932293C2951088400E4
:100268000A30040203183C2985310435903E820087
:100278000130D1070030D23D3008E700670821007F
:10028800CC00200031085202031D4C2930085102CD
:10029800031C0800FF30B000FF30B100D101D201CB
:1002A800ED1408002000EC006C08E100E201610890
:1002B800EA006208EB006C08E100E201E301E401F6
:1002C8006408E9006308E8006208E7006108E600DE
:1002D800ED18F229012A22000C1420006A08E20015
:1002E800E1016108C5006208C600012A22000C105D
:1002F80020006A084504A0006B084604A100012AF2
:100308006C08E1006108A200012A6C08E10061089C
:10031800A300012A6C08E1006108A400240839063A
:100328000319012A8531A42581312000ED10012A05
:100338002608EE292508EE292808EE292708EE299F
:100348002A08EE292908EE296C08E1006108AB00AB
:100358002B088531E8258131012A01302000AC07BE
:100368000030AD3D0030AE3D0030AF3D2C08E1001F
:100378002D08E2002E08E3002F08E4001830E436C8
:10038800E30CE20CE10C890BC329E9292C08E100F4
:100398002D08E2002E08E3002F08E4001030E436B0
:1003A800E30CE20CE10C890BD329E9292C08E100C4
:1003B8002D08E2002E08E3002F08E4000830E43698
:1003C800E30CE20CE10C890BE3296108E500650800
:1003D800F0292C08E1006108DF00012A5208003AE0
:1003E8000319F729012A5108840010300402031860
:1003F800012A85310435413E820001302000D107B1
:100408000030D23D21085202031D0C2A2008510257
:10041800031C0800C501C60100302100C7000030D8
:10042800C6000030C5000030C400FF302000A00026
:10043800FF30A100D101D201ED1408003F302000A7
:10044800E00060082100A0007F302000E000600884
:100458002100A1009F302000E00060082100A200D8
:10046800AF302000E00060082100A300BF3020006A
:10047800E00060082100A400CF302000E000600800
:100488002100A500D7302000E00060082100A60068
:10049800DF302000E00060082100A700E7302000DE
:1004A800E00060082100A800EB302000E0006008B0
:1004B8002100A900EF302000E00060082100AA0018
:1004C800F1302000E00060082100AB00F33020008C
:1004D800E00060082100AC00F5302000E000600872
:1004E8002100AD00F7302000E00060082100AE00D8
:1004F800F8302000E00060082100AF00F93020004B
:10050800E00060082100B000FA302000E000600838
:100518002100B10008003F302000E0006008210001
:10052800B2007F302000E00060082100B3009F3057
:100538002000E00060082100B400AF302000E00097
:1005480060082100B500BF302000E00060082100ED
:10055800B600CF302000E00060082100B700D73097
:100568002000E00060082100B800DF302000E00033
:1005780060082100B900E7302000E0006008210091
:10058800BA00EB302000E00060082100BB00EF302B
:100598002000E00060082100BC00F1302000E000ED
:1005A80060082100BD00F3302000E0006008210051
:1005B800BE00F5302000E00060082100BF00F730E1
:1005C8002000E00060082100C000F8302000E000B2
:1005D80060082100C100F9302000E0006008210017
:1005E800C200FA302000E00060082100C3000800C3
:1005F800F0302000E9002630EA0053086907860039
:1006080054086A3D87000108EB006B08DC005C08B1
:10061800E9006908DF000130D3070030D43D5C08E9
:10062800843100248231031C2A2B22000C10200064
:10063800CD01CE01D301D4018531FD258231771258
:100648002000D701D801D101D2012F2B0130200081
:10065800CD070030CE3D4E086F02031D352B4D08E7
:100668006E0203180800CD01CE01D301D4018531F3
:10067800FD2577122000D701D801D101D201080049
:1006880020005C08E000E1016008E2006108E30086
:10069800692B6208E100E001FF306004EE000030E1
:1006A8006104612B00306204E000FF306304E10064
:1006B8006E086005EE006F086105EF007C2B5C0892
:1006C800E0006008DE0077167C2B4E08003A03191C
:1006D8006E2B7C2B4D08003A03197C2B013A031929
:1006E8004D2B033A0319562B013A0319632B7C2B24
:1006F80054035304031D822BD301D40150034F0428
:10070800031D0800CF01D00108002100D100D2014B
:10071800D3015308803AD00080305002031D962B35
:10072800123052020318080021005208A03E860029
:100738008701010851060319AC2BC02B20005C0867
:1007480080318120080020005C0881315621080092
:1007580021005308003A0319B22BC02B5208003A63
:100768000319A22B013A0319A72B033A0319C62B25
:10077800013A0319C62BC02B01302100D2070030E3
:10078800D33D8D2B08002000E601003056020230D0
:1007980003195502031CE42B5508FF3EE100FF3006
:1007A800563DE200F030E3002530E40061086307BD
:1007B80086006208643D87000108E5006508F12BA2
:1007C800F030E1002530E200550861078600560840
:1007D800623D87000108E3006308E600660A031922
:1007E800FA2B22000C1420006D10080022000C10B7
:1007F80000308631062608002000E8006808E0007E
:10080800E101E201E3013F08E4004008E500410896
:10081800E6004208E7000830E435E50DE60DE70D8F
:10082800890B102C6408E0046508E1046608E204FA
:100838006708E3046308C2006208C1006108C000D9
:100848006008BF003F0A031D342C400A031D342CE6
:10085800410A031D342C420A031D342C03140800DA
:100868000310080082318F228431823122228431A0
:1008780085317A25843184316424843186310C268B
:1008880084318531F3258431853161258431220015
:100898000C148531B525843103184D2C8231FC2286
:1008A8008431771E5D2C20005E08833189238431D2
:1008B800602C8331442384318431B92484314D2C14
:1008C8002000D701D801D501D60184318F24843185
:1008D80032001F08F03907389F00C0309E05853167
:1008E800C225FF3024008E00FF308D00FF308C00C1
:1008F80021000D170D160E1727000D120D138E125D
:100908003F3024008C0021008D1627008D128D1396
:100918008C100C1108002000E201E3016308803A02
:10092800E00081306002031D9B2C00306202031836
:100938000800F0302000E0002630E100620860077F
:1009480086006308613D87008101F030E0002530B2
:10095800E1006208600786006308613D8700810145
:100968000130E2070030E33D922C20003E08031DD1
:10097800C12C5F08240099000800F0302000E00036
:100988002530E10055086007E2005608613DE300A4
:1009980062088600630887005F0881000130D50778
:1009A8000030D63D56035504031D0800D501D60175
:1009B800080024001F131B303D0092001A309F00CE
:1009C8003C001F08E0390F389F0024001D179D16B2
:1009D8001D08F03901389D001F169C131C131D12A9
:1009E8002100921520009211240019082000E0002F
:1009F8006008E10008008531CF25843103181E2DD9
:100A0800F030F0002530F10020004F087007860014
:100A18005008713D87000108240091000130200032
:100A2800CF070030D03D50034F04031D0800CF010D
:100A3800D001080024009101080024001713193080
:100A48003D00A2003C002208E0391638A20024002C
:100A5800151795161508F0390438950017169413CC
:100A6800141315122100911520009111240011086A
:100A78002000E0006008E100080081316F29813121
:100A88007A29813184298131892981318E298131DD
:100A98009C2981319E298131A0298131A229813166
:100AA800A4298131A6298131A8298131B12981312F
:100AB800CA298131DA298131ED292000ED1400306D
:100AC800AF000030AE000030AD000030AC00A40133
:100AD800FF30A000FF30A100AB01A201A301A701D4
:100AE800A801A501A601A901AA01080020006D140A
:100AF800FF30B000FF30B100B301B2010030B700E1
:100B08000030B6000030B5000030B400BE01B901B5
:100B1800D101D201ED1408008031AA288031B8280B
:100B28008031C9288031D0288031DA288031E22804
:100B38008031FA2881310A2981311D2981311F2903
:100B480000302000AF000030AE000030AD000030B3
:100B5800AC00A401FF30A000FF30A100A201A30156
:100B68000800200058085406031DBC2D57085306DA
:100B7800031DC02D031408000310080023008C0176
:100B88008D018E0120008C018D018E0121008C01C8
:100B98008D018E010800200056085006031DD62D31
:100BA80055084F06031DDA2D03140800031008002A
:100BB8006400800101310130FE020030FF3B7F08F4
:100BC8007E0403190034DD2D2000E0006003031DBE
:100BD800F02D22000C14080022000C1008000B1342
:100BE8008B138531212585318431DD240B178B1733
:100BF8000800FF302000EE00FF30EF00DE018531F5
:100C0800A42508002000E0006008240091000800E6
:100C18002100101610140B140800FF34FF3401349F
:060C280000340134003429
:020000040001F9
:08000E008CFFD3FDFFFFFFFF93
:00000001FF
