:0400000080314728DC
:100008007E14803120007F08F900911D37282400D4
:100018001108F4007408FA007A08031930287D03DF
:10002800FF3A7A07F400F030F5002630F600210098
:1000380057087507F7005808763DF80077088600D6
:1000480078088700740881008E317326803101306A
:100058002100D7070030D83D210058035704031D5D
:100068003728D701D8012700931D3C288D31B325A7
:100078002000911127009311200010121010790808
:10008800FF007E100900803149288731FE27803122
:10009800FD00623084008D30850021001200DE00F2
:1000A8001200DF001200E0001200E1001200E2007E
:1000B8001200E300F0308400243085000030FE0098
:1000C8000330FF008D318D258031F001F101FC01F5
:1000D80059308400003085001630FE000030FF00E3
:1000E8008D318D258031A0308400003085003E3070
:1000F800FE000030FF008D318D25803120308400D6
:10010800013085004A30FE000030FF008D318D251A
:100118008031A0308400013085001230FE000030AC
:10012800FF008D318D257E1020008F318D2F20000E
:10013800D7005708CB00CC014B08D5004C08D60097
:100148005708CB00CC01CD01CE014E08D4004D0894
:10015800D3004C08D2004B08D1008D31D225803114
:10016800200020308600003087005930840000309D
:1001780085001030CB0016001A00CB0BBF28F018F2
:100188009329A2295508CC00CB01FF304B04D90094
:1001980000304C04DA2800305504CB00FF305604F8
:1001A800CC0059084B05D9005A084C05DA00A22999
:1001B8005708CB004B08DB00A2295708CB004B0897
:1001C800DC00570887318E278031A2292000570884
:1001D800CB004B08DD005D0821003B060319A2296E
:1001E8008D314B258031F010A22920005F088F291E
:1001F8005E088F2961088F2960088F2963088F2975
:1002080062088F295708CB004B08E40064088D3139
:1002180082258031A22901302000E5070030E63D23
:100228000030E73D0030E83D0C30593E860087013C
:10023800403FAF00413FB000423FB100433FB200F2
:100248008231D322803120002F08CB003008CC0027
:100258003108CD003208CE001830CF00CE37CD0C93
:10026800CC0CCB0CCF0B32297A290C30593E8600A6
:100278008701403FAF00413FB000423FB100433FDC
:10028800B2008231D322803120002F08CB00300801
:10029800CC003108CD003208CE001030CF00CE3768
:1002A800CD0CCC0CCB0CCF0B53297A290C30593EF2
:1002B80086008701403FAF00413FB000423FB10098
:1002C800433FB2008231D322803120002F08CB0077
:1002D8003008CC003108CD003208CE000830CF00FD
:1002E800CE37CD0CCC0CCB0CCF0B74294B08D000DF
:1002F800500891290C30593E86008701403FAF00D5
:10030800413FB000423FB100433FB2008231D322A7
:10031800803120002F08CB004B08EE00A2296A0884
:10032800003A03199829A2296908840010300402A8
:100338000318A22988310435003E820001302000CC
:10034800E9070030EA3D5A086A02031DAD29590839
:100358006902031C0800FF30D900FF30DA00E90108
:10036800EA01F01408002000D7005708CB00CC01A0
:100378004B08D5004C08D6005708CB00CC01CD015E
:10038800CE014E08D4004D08D3004C08D2004B08CB
:10039800D1008F315E278131A42A8F3133278131F3
:1003A80020005508CC00CB01FF304B042100B200DF
:1003B800003020004C04EF2900305504CB00FF30FA
:1003C8005604CC002100320820004B052100B20061
:1003D800330820004C052100B300FD295708CB0045
:1003E8004B082100B400FD295708CB004B08210019
:1003F800B500200057088A2A5708013ECB004B0851
:100408002100BB003B0820008A2A01302100B607E2
:100418000030B73D0030B83D0030B93D0430B23E41
:1004280086008701403F2000AF00413FB000423FB7
:10043800B100433FB2008231D322813120002F081E
:10044800CB003008CC003108CD003208CE0018307F
:10045800CF00CE37CD0CCC0CCB0CCF0B2D2A752A68
:100468000430B23E86008701403FAF00413FB000F4
:10047800423FB100433FB2008231D3228131200094
:100488002F08CB003008CC003108CD003208CE0050
:100498001030CF00CE37CD0CCC0CCB0CCF0B4E2A66
:1004A800752A0430B23E86008701403FAF00413FC5
:1004B800B000423FB100433FB2008231D3228131C4
:1004C80020002F08CB003008CC003108CD003208BE
:1004D800CE000830CF00CE37CD0CCC0CCB0CCF0BD8
:1004E8006F2A4B08D00050088C2A0430B23E860090
:1004F8008701403FAF00413FB000423FB100433F5A
:10050800B2008231D322813120002F08CB004B0862
:10051800EE00B42A7B1C962A22000C142100C0018C
:10052800C00A9A2A22000C102100C0013B082000B2
:10053800CB004B08EE007B108D31E2258131B42AC7
:1005480020006A08003A0319AA2AB42A6908840014
:100558000A3004020318B42A88310435203E820088
:100568007B1CB92A2000EE01EE0A01302000E907C1
:100578000030EA3D2100330820006A02031DC82A22
:100588002100320820006902031C0800FF30210006
:10059800B200FF30B3002000E901EA010800003092
:1005A8002000CA000030C9000030C8000030C70071
:1005B8003208CA003108C9003008C8002F08C7002F
:1005C8000030BA000030B9000030B8000030B70081
:1005D8000030C0000030BF000030BE000030BD0059
:1005E800C501C601CA1B022B4A08031D0A2B49086C
:1005F800031D0A2B0130480203180A2B4A08C000C1
:100608004908BF004808BE004708252B0030A30052
:100618000030A2000030A100FF30A0004A08A70067
:100628004908A6004808A5004708A4008431FE240C
:10063800823120002308C0002208BF002108BE0024
:100648002008BD000030A3000030A2000030A10047
:10065800FF30A0004A08A7004908A6004808A500DE
:100668004708A40084317C24823120002008C70078
:100678002108C800890D893B8909C900CA000030D2
:10068800C4000030C3000030C2000130C100460879
:10069800803AB30080303302031D542B01304502E9
:1006A800031C822B2000BB01BC013C08803AB3002C
:1006B8004608803A3302031D632B45083B020318A2
:1006C800822B20004108B3004208B4004308B5005B
:1006D8004408B6000830B335B40DB50DB60D890B16
:1006E8006F2B3608C4003508C3003408C20033082D
:1006F800C1000130BB070030BC3D592B2000400829
:10070800A3003F08A2003E08A1003D08A00044083D
:10071800A7004308A6004208A5004108A4008731A5
:10072800CE27823120002008B7072108B83D2208CB
:10073800B93D2308BA3DCA1BB02B4A08031DAB2B91
:100748004908031DAB2B01304802031CB02B0130B4
:10075800C5070030C63DF62A3A08B2003908B1008C
:100768003808B0003708AF0008002000BB003B087D
:10077800B100B2013108B9003208BA003B08B10033
:10078800B201B301B4013408B8003308B700320825
:10079800B6003108B5008D31D225833120002030D4
:1007A8008600003087005930840000308500103002
:1007B800B10016001A00B10BDD2BF018242C342CD4
:1007C8003908B200B101FF303104D90000303204D9
:1007D800F82B00303904B100FF303A04B200590850
:1007E8003105D9005A083205DA00342C3B08B1002B
:1007F8003108DB00342C3B08B1003108DC00342C14
:100808003B08B1003108DD005D0821003B060319F3
:10081800122C8D314B258331F010342C031022001B
:100828000C1C0314031C1B2C22000C141D2C22006E
:100838000C10701400302100C700F030C800342CB0
:1008480020006A08003A03192A2C342C690884000D
:10085800053004020318342C88310435403E8200E8
:10086800701C542C003020006A02053003196902FC
:10087800031C542C210048082000A100210047082F
:100888002000A0008E3195268331210049082000E0
:10089800B1003108EE0001302100C7070030C83D23
:1008A80001302000E9070030EA3D2100330820002C
:1008B8006A02031D632C2100320820006902031C10
:1008C8006F2CFF302100B200FF30B3002000E90197
:1008D800EA01F0147010F03021004802FF300319CB
:1008E8004702031C08002000E901EA01F01408008F
:1008F8002000AA01A31F8D2CA009A109A209A30900
:10090800A00A0319A10A0319A20A0319A30AAA0132
:10091800AA0AA71F9E2CA409A509A609A709A40A23
:100928000319A50A0319A60A0319A70A0130A80082
:100938002808AA060030AE000030AD000030AC0038
:100948000030AB0023082204210420040319E72CFB
:10095800A901A90AA31BBC2C0130A035A10DA20D29
:10096800A30D890BB12C0130A8002808A907AE2CCB
:100978000130AB35AC0DAD0DAE0D890BBD2C230888
:100988002702031DD12C22082602031DD12C210881
:100998002502031DD12C20082402031CDC2C20086E
:1009A800A4022108A53B2208A63B2308A73B2B1439
:1009B8000130A336A20CA10CA00C890BDD2C013050
:1009C800A902031DBC2C2A080319F52CAB09AC0994
:1009D800AD09AE09AB0A0319AC0A0319AD0A03192C
:1009E800AE0A2E08A3002D08A2002C08A1002B088F
:1009F800A00008002000AA01A71F0F2DA409A5091F
:100A0800A609A709A40A0319A50A0319A60A03191E
:100A1800A70AAA01AA0AA31F1C2DA009A109A209B5
:100A2800A309A00A0319A10A0319A20A0319A30A10
:100A380023082204210420040319552DA901A90A19
:100A4800A31B322D0130A035A10DA20DA30D890BDA
:100A5800272D0130A8002808A907242D23082702DC
:100A6800031D402D22082602031D402D21082502C2
:100A7800031D402D20082402031C4A2D2008A4022F
:100A88002108A53B2208A63B2308A73B0130A33633
:100A9800A20CA10CA00C890B4B2D0130A902031D3F
:100AA800322D2A080319632DA409A509A609A70947
:100AB800A40A0319A50A0319A60A0319A70A2708ED
:100AC800A3002608A2002508A1002408A000080009
:100AD8003F302000A00020082300A0007F30200025
:100AE800A00020082300A1009F302000A0002008BB
:100AF8002300A200AF302000A00020082300A3009C
:100B0800BF302000A00020082300A400CF30200020
:100B1800A00020082300A500D7302000A00020084E
:100B28002300A600DF302000A00020082300A70033
:100B3800E7302000A00020082300A800EB302000A8
:100B4800A00020082300A900EF302000A000200802
:100B58002300AA00F1302000A00020082300AB00E9
:100B6800F3302000A00020082300AC00F53020005E
:100B7800A00020082300AD00F7302000A0002008C6
:100B88002300AE00F8302000A00020082300AF00AA
:100B9800F9302000A00020082300B000FA3020001F
:100BA800A00020082300B10008003F302000A0006A
:100BB80020082200D8007F302000A0002008220052
:100BC800D9009F302000A00020082200DA00AF30B2
:100BD8002000A00020082200DB00BF302000A00079
:100BE80020082200DC00CF302000A00020082200CE
:100BF800DD00D7302000A00020082200DE00DF3012
:100C08002000A00020082200DF00E7302000A0001C
:100C180020082200E000EB302000A000200822007D
:100C2800E100EF302000A00020082200E200F130AF
:100C38002000A00020082200E300F3302000A000DC
:100C480020082200E400F5302000A000200822003F
:100C5800E500F7302000A00020082200E600F83068
:100C68002000A00020082200E700F9302000A000A2
:100C780020082200E800FA302000A0002008220006
:100C8800E90008003F302000A00020082100A00053
:100C98007F302000A00020082100A1009F30200004
:100CA800A00020082100A200AF302000A0002008EA
:100CB8002100A300BF302000A00020082100A400CC
:100CC800CF302000A00020082100A500D730200048
:100CD800A00020082100A600DF302000A000200886
:100CE8002100A700E7302000A00020082100A8006C
:100CF800EB302000A00020082100A900EF302000E0
:100D0800A00020082100AA00F1302000A00020083F
:100D18002100AB00F3302000A00020082100AC0027
:100D2800F5302000A00020082100AD00F730200099
:100D3800A00020082100AE00F8302000A000200804
:100D48002100AF00F9302000A00020082100B000E9
:100D5800FA302000A00020082100B100080020007F
:100D6800AA002A087D07A000A101A10D2008A20061
:100D78002108A3000030A31BFF30A400A500210018
:100D880041082000A600210042082000A7002100F9
:100D980043082000A800210044082000A9000830CA
:100DA800A635A70DA80DA90D890BD42E2608A204D7
:100DB8002708A3042808A4042908A5042508210055
:100DC800C400200024082100C300200023082100BB
:100DD800C200200022082100C100410A031DFF2E85
:100DE800420A031DFF2E430A031DFF2E440A031D5A
:100DF800FF2E0314080003100800F0302000AB0099
:100E08002630AC002100550820002B078600210061
:100E1800560820002C3D87000108AD002D08FC0075
:100E28007C08AB002B08EE0001302100D50700300C
:100E3800D63D56035504031D232FD501D6017C0842
:100E48008631B3268731031C342F2100D301D40106
:100E58008D317825873171102000E901EA01392F99
:100E680001302100D3070030D43D2100540863022B
:100E7800031D402F5308620203180800D301D40150
:100E88008D31782571102000E901EA0108007C08FD
:100E98002000A000A1012008A2002108A3007C2FA7
:100EA80020002208A100A001FF3020042100E20058
:100EB8000030200021042100E30008000030200059
:100EC8002204A000FF302304A100210062082000B2
:100ED80020052100E2006308200021052100E3002D
:100EE80008007C082000A0002008ED00711408000C
:100EF80021005408003A0319822F8D2F5308013A14
:100F08000319542F033A0319622F013A0319752F55
:100F18008D2F08002000A200A301A4012408803A14
:100F2800A10080302102031D9B2F123023020318D9
:100F3800080020002308A03E860001308700010831
:100F480022060319B02FC72F01308E31132608004F
:100F580002308E311326080020002408003A0319B5
:100F6800B62FC72F2308003A0319CD2F013A0319CA
:100F7800A82F033A0319AC2F013A0319CD2F053ACC
:100F88000319CD2FC72F01302000A3070030A43D3F
:100F9800922F080000302000AB000030AA0000307B
:100FA800A9000030A800201CE12F2408A807250864
:100FB800A93D2608AA3D2708AB3D0130A435A50D5B
:100FC800A60DA70D890BE22F0130A336A20CA10CA8
:100FD800A00C890BE92F2308220421042004031DF7
:100FE800D72F2B08A3002A08A2002908A100280847
:060FF800A0000800013416
:101000008031C6288031CF288031DC288031E1282A
:101010008031EA288031F9288031FC288031FE288F
:101020008131002981310229813104298131062948
:1010300081310F298131392981315A2981317E2924
:101040008131D1298131E0298131F2298131F82999
:101050008231002A8231092A8231342A8231552A8A
:101060008231792A82318E2A8F31DD2F8F31E12F23
:101070008F31FF2F8F31FF2F8F31FF2F8F31E52FD2
:101080008331E42B8331ED2B8331FA2B8331FF2B1A
:041090008431042C77
:101A96002000DD01DB01DC01080022002108F30043
:101AA6002008F200080073082000DF007208DE003C
:101AB60008002000A000200824009100080001343E
:101AC600003468340134FF34FF340B138B138E312A
:101AD60032260B178B1708002100101627009115C8
:101AE6009215210010140B140800FF302100E200AB
:101AF600FF30E3002000ED018D314B25080020006A
:101B0600A0002003031D8A2D22000C1408002200C9
:101B16000C1008006400800101310130FE02003023
:101B2600FF3B7F087E04031900348E2D23008C01B1
:101B36008D018E0120008C018D018E0121008C010A
:101B46008D018E010800210058085606031DAD2D93
:101B560057085506031DB12D03140800031008008D
:101B66008D3150258D3172082100E0077308E13D63
:101B76006108F3006008F2008D3156250800200048
:101B86006C0821005006031DCC2D20006B08210097
:101B96004F06031DD02D031408000310080059300A
:101BA6008600003087002030840000308500103029
:101BB6002000B00016001A00B00BDD2D0800003022
:101BC6002000E8000030E7000030E6000030E500C5
:101BD600DD01FF30D900FF30DA00E401DB01DC0172
:101BE6006830DE000130DF00E201E3010800F01496
:101BF60000302000E8000030E7000030E60000304A
:101C0600E500DD01FF30D900FF30DA00E401DB0139
:101C1600DC016830DE000130DF00E201E30108008C
:101C26002000A0002003031D1E2E01302200A0006C
:101C36000030A1000800023020002006031D292ED6
:101C4600FF302200A000FF30A10008000330200072
:101C56002006031D08002200A001A101080024009F
:101C6600171319303D00A2003C002208E03916384F
:101C7600A2002400151795161508F03904389500AA
:101C860017169413141315122100911520009111A3
:101C9600240011082000A0002008A1000800200050
:101CA6006E087D07A0002008EE00F030A000253069
:101CB600A1006B082007A2006C08213DA3002208A2
:101CC6008600230887006E0881000130EB0700308C
:101CD600EC3D6C036B04031D0800EB01EC010800EE
:101CE6008D31C2258E310318922EF030F200253048
:101CF600F30021004F08720786005008733D8700E5
:101D060001082400910001302100CF070030D03DAA
:101D160050034F04031D0800CF01D0010800240022
:101D26009101080020002108A2002208A300200833
:101D3600A2002208A4003100151720002408310053
:101D46009100200023083100920015141514130881
:101D56002000A20022082100C9003100140820003A
:101D6600A20022082100CA0008002200A001A10149
:101D76000030A2000030A3000030A4000030A5000F
:101D86000030A6000030A7000030A8000030A900EF
:101D96000030AA000030AB000030AC000030AD00CF
:101DA6000030AE000030AF000030B0000030B100AF
:101DB6000030B2000030B30008002100D701D8017E
:101DC6002000EB01EC018F3109278E3132001F080C
:101DD600F03907389F00C0309E058D319925FF30B8
:101DE60024008E00FF308D00FF308C0021000D177F
:101DF6000D160E1727000D120D138E1221008D16CB
:101E060027008D128D138C100C1108002000A201E2
:101E1600A3012308803AA00081302002031D152F5C
:101E26000030220203180800F0302000A0002630FF
:101E3600A1002208200786002308213D8700810192
:101E4600F030A0002530A1002208200786002308D4
:101E5600213D870081010130A2070030A33D0C2FF0
:101E66007B14FF302100B200FF30B300B501B4018E
:101E76000030B9000030B8000030B7000030B600BE
:101E86008D31D2258F31200020308600003087002A
:101E960032308400003085001030B10016001A0080
:101EA600B10B512FB701B8012100C001BB012000C1
:101EB600E901EA0108002000A60100306C020230A8
:101EC60003196B02031C7B2F6B08FF3EA100FF303A
:101ED6006C3DA200F030A3002530A40021082307A2
:101EE60086002208243D87000108A5002508882FC2
:101EF600F030A1002530A2006B08210786006C088F
:101F0600223D87000108A3002308A60001308D3179
:101F16005C250800863146268F3185316C258F3148
:101F26008531D9258F318F3133278F318E31E02698
:101F36008F318D316F258F318D3168258F318D3100
:101F4600FA258F318E31B8268F3122000C148D314F
:101F5600A6258F310318AA2F873101278F31711CCF
:101F6600BA2F20006D088F31C1278F31BD2F8731E1
:101F76004B278F318E3152268F31AA2F2100E40054
:101F8600E501E6016608803A2000D8008030580254
:101F9600031DD02F1230210065020318080021000E
:101FA6006508583E8600013087000108640603195B
:101FB600E92FF92F7C088131B72108007C08803190
:101FC6009B2008007C088331B9230800210066089D
:101FD600003A0319EF2FF92F650884000630040232
:101FE6000318F92F88310435343E82000130210070
:101FF600E5070030E63DC52F080001340034013402
:022006000034A4
:020000040001F9
:08000E008CFFD2FDFFDFFFFFB4
:10E0000000000000000000000100450043004F0038
:10E0100042004F00540020004C00430043002E00FB
:10E0200000000000000000000200000000000000EE
:10E0300001000000000000000000020000000000DD
:10E0400000000100000000000000000003000300C9
:10E05000010000002800030002000000640003002B
:10E06000030000004800030004000000C800030093
:10E07000050000000000030006000000520003003D
:10E080000700000000000200080000000200090074
:10E09000000002000A00010003000B000000000065
:10E0A00003000C000000000003000D000000B4009D
:10E0B00003000E000000000003000F00000000003D
:10E0C0000300100000000000030011000000000029
:10E0D0000300120000000000030013000000000015
:10E0E0000000000000000000FE0000000000000032
:10E0F0000000000000000000000000000000000020
:10E10000000000000000000000000000000000000F
:10E1100000000000000000000000000000000000FF
:10E1200000000000000000000000000000000000EF
:10E1300000000000000000000000000000000000DF
:10E1400000000000000000000000000000000000CF
:10E1500000000000000000000000000000000000BF
:10E1600000000000000000000000000000000000AF
:10E17000000000000000000000000000000000009F
:10E18000000000000000000000000000000000008F
:10E19000000000000000000000000000000000007F
:10E1A000000000000000000000000000000000006F
:10E1B000000000000000000000000000000000005F
:10E1C000000000000000000000000000000000004F
:10E1D000000000000000000000000000000000003F
:10E1E000000000000000000000000000000000002F
:00000001FF
