:0400000080316028C3
:100008007E14803120007F08F800911D30286E038F
:10001800FF3A24001107F300F030F4002630F50011
:1000280020006A087407F6006B08753DF70076082B
:10003800860077088700730881008F31B5278031E3
:1000480001302000EA070030EB3D6B036A04031D12
:100058005428EA01EB015428921D4F28F030F30090
:100068002530F40068087307F5006908743DF60048
:100078007508860076088700240019088100013079
:100088002000E8070030E93D69036804031D54288F
:10009800E801E90154282700931D54288F312427AB
:1000A80020009111921127009311200010121010B6
:1000B8007808FF007E100900803162288731FE270A
:1000C8008031EE0021008E31E7268031EB008E3141
:1000D800E8268031EC008E31E9268031ED008E3142
:1000E800EA268031EE00F0308400243085000030AC
:1000F800FE000330FF008F3130278031F001FA0114
:1001080052308400003085001C30FE000030FF00B3
:100118008F3130278031A0308400003085004B308B
:10012800FE000030FF008F313027803120308400FE
:10013800013085001230FE000030FF008F3130277B
:100148007E1020008731392F2200B800380820009F
:10015800CB00CC014B082200B60020004C0822003E
:10016800B70038082000CB00CC01CD01CE014E08E5
:100178002200B50020004D082200B40020004C08E1
:100188002200B30020004B082200B2008F31632701
:1001980080312000203086000030870052308400F3
:1001A800003085001030CB0016001A00CB0BD82881
:1001B8007018B529C429220036082000CC00CB01CC
:1001C800FF304B04D20000304C04F92800302200E4
:1001D80036042000CB00FF30220037042000CC007A
:1001E80052084B05D20053084C05D300C4292200FD
:1001F80038082000CB004B08D400C4292200380856
:100208002000CB004B08D500C42922003808200064
:10021800CB004B08D600560821004D060319C42907
:100228008E31EB2680317010C42920005808B1297E
:100238005708B1295A08B1295908B1295C08B129C8
:100248005B08B129220038082000CB004B08DD00EC
:100258005D088F3119278031C42901302000DE075D
:100268000030DF3D0030E03D0030E13D0C30523ED3
:1002780086008701403FAF00413FB000423FB100D8
:10028800433FB20083311123803120002F08CB0077
:100298003008CC003108CD003208CE001830CF002D
:1002A800CE37CD0CCC0CCB0CCF0B54299C290C3061
:1002B800523E86008701403FAF00413FB000423FB9
:1002C800B100433FB20083311123803120002F0851
:1002D800CB003008CC003108CD003208CE001030F9
:1002E800CF00CE37CD0CCC0CCB0CCF0B75299C296D
:1002F8000C30523E86008701403FAF00413FB000BE
:10030800423FB100433FB2008331112380312000C6
:100318002F08CB003008CC003108CD003208CE00C1
:100328000830CF00CE37CD0CCC0CCB0CCF0B962998
:100338004B08D0005008B3290C30523E8600870184
:10034800403FAF00413FB000423FB100433FB200E1
:1003580083311123803120002F08CB004B08ED009A
:10036800C4296508003A0319BA29C4296408840015
:10037800103004020318C42988310435003E820075
:1003880001302000E4070030E53D53086502031DF5
:10039800CF2952086402031C08002100DB01DC019C
:1003A8000030D6000030D5000030D4000030D30033
:1003B800FF302000D200FF30D300E401E5017014C3
:1003C80008002200B80038082000CB00CC014B08F8
:1003D8002200B60020004C082200B7003808200090
:1003E800CB00CC01CD01CE014E082200B500200083
:1003F8004D082200B40020004C082200B300200061
:100408004B082200B2008631D5268131E62A873191
:1004180092278131220036082000CC00CB01FF3022
:100428004B042100C400003020004C042E2A003068
:10043800220036042000CB00FF30220037042000C1
:10044800CC002100440820004B052100C4004508C9
:1004580020004C052100C500402A22003808200051
:10046800CB004B082100C600402A22003808200093
:10047800CB004B082100C700220038084C2A220074
:100488003808013E2000CB004B082100CD004D0864
:100498002000CF2A01302100C8070030C93D0030B4
:1004A800CA3D0030CB3D0430C43E86008701403F42
:1004B8002000AF00413FB000423FB100433FB200CF
:1004C80083311123813120002F08CB003008CC0064
:1004D8003108CD003208CE001830CF00CE37CD0C11
:1004E800CC0CCB0CCF0B722ABA2A0430C43E86003F
:1004F8008701403FAF00413FB000423FB100433F5A
:10050800B20083311123813120002F08CB0030083D
:10051800CC003108CD003208CE001030CF00CE37E5
:10052800CD0CCC0CCB0CCF0B932ABA2A0430C43E8A
:1005380086008701403FAF00413FB000423FB10015
:10054800433FB20083311123813120002F08CB00B3
:100558003008CC003108CD003208CE000830CF007A
:10056800CE37CD0CCC0CCB0CCF0BB42A4B08D0001B
:100578005008D12A0430C43E86008701403FAF00AE
:10058800413FB000423FB100433FB20083311123E5
:10059800813120002F08CB004B08ED00F62A791C8A
:1005A800DB2A22000C142100D201D20ADF2A220001
:1005B8000C102100D2014D082000CB004B08ED00A3
:1005C8007910F62A20006508003A0319EC2AF62A61
:1005D800640884000A3004020318F62A88310435B6
:1005E800203E82007918ED010130E4070030E53D36
:1005F8002100450820006502031D062B2100440840
:1006080020006402031C0800FF302100C400FF30F2
:10061800C5002000E401E501080000302000CA0000
:100628000030C9000030C8000030C7003208CA00D6
:100638003108C9003008C8002F08C7000030BA00C8
:100648000030B9000030B8000030B7000030C000FA
:100658000030BF000030BE000030BD00C501C6013B
:10066800CA1B402B4A08031D482B4908031D482B69
:10067800013048020318482B4A08C0004908BF0047
:100688004808BE004708632B0030A3000030A200D2
:100698000030A100FF30A0004A08A7004908A600C2
:1006A8004808A5004708A400843179248331200034
:1006B8002308C0002208BF002108BE002008BD0092
:1006C8000030A3000030A2000030A100FF30A000DD
:1006D8004A08A7004908A6004808A5004708A4003A
:1006E8008331F723833120002008C7002108C80080
:1006F800890D893B8909C900CA000030C40000304F
:10070800C3000030C2000130C1004608803AB3007F
:1007180080303302031D922B01304502031CC02B8D
:100728002000BB01BC013C08803AB3004608803A6F
:100738003302031DA12B45083B020318C02B2000E0
:100748004108B3004208B4004308B5004408B600A5
:100758000830B335B40DB50DB60D890BAD2B360881
:10076800C4003508C3003408C2003308C100013092
:10077800BB070030BC3D972B20004008A3003F0872
:10078800A2003E08A1003D08A0004408A7004308B5
:10079800A6004208A5004108A40087310927833133
:1007A80020002008B7072108B83D2208B93D2308D2
:1007B800BA3DCA1BEE2B4A08031DE92B4908031D45
:1007C800E92B01304802031CEE2B0130C50700302D
:1007D800C63D342B3A08B2003908B1003808B000D9
:1007E8003708AF0008002000AA01A31F082CA009A1
:1007F800A109A209A309A00A0319A10A0319A20AB7
:100808000319A30AAA01AA0AA71F192CA409A50952
:10081800A609A709A40A0319A50A0319A60A031910
:10082800A70A0130A8002808AA060030AE00003048
:10083800AD000030AC000030AB00230822042104D6
:1008480020040319622CA901A90AA31B372C013023
:10085800A035A10DA20DA30D890B2C2C0130A800E9
:100868002808A907292C0130AB35AC0DAD0DAE0D0C
:10087800890B382C23082702031D4C2C220826023A
:10088800031D4C2C21082502031D4C2C2008240292
:10089800031C572C2008A4022108A53B2208A63BCC
:1008A8002308A73B2B140130A336A20CA10CA00CE3
:1008B800890B582C0130A902031D372C2A0803196B
:1008C800702CAB09AC09AD09AE09AB0A0319AC0A27
:1008D8000319AD0A0319AE0A2E08A3002D08A200B9
:1008E8002C08A1002B08A00008002000AA01A71FBF
:1008F8008A2CA409A509A609A709A40A0319A50A07
:100908000319A60A0319A70AAA01AA0AA31F972C62
:10091800A009A109A209A309A00A0319A10A031998
:10092800A20A0319A30A2308220421042004031994
:10093800D02CA901A90AA31BAD2C0130A035A10D0B
:10094800A20DA30D890BA22C0130A8002808A90725
:100958009F2C23082702031DBB2C22082602031DF7
:10096800BB2C21082502031DBB2C20082402031CD4
:10097800C52C2008A4022108A53B2208A63B230871
:10098800A73B0130A336A20CA10CA00C890BC62CE6
:100998000130A902031DAD2C2A080319DE2CA40975
:1009A800A509A609A709A40A0319A50A0319A60AED
:1009B8000319A70A2708A3002608A2002508A100F2
:1009C8002408A00008003F302000A00020082100D3
:1009D800A0007F302000A00020082100A1009F3047
:1009E8002000A00020082100A200AF302000A000B5
:1009F80020082100A300BF302000A000200821000B
:100A0800A400CF302000A00020082100A500D73086
:100A18002000A00020082100A600DF302000A00050
:100A280020082100A700E7302000A00020082100AE
:100A3800A800EB302000A00020082100A900EF301A
:100A48002000A00020082100AA00F1302000A0000A
:100A580020082100AB00F3302000A000200821006E
:100A6800AC00F5302000A00020082100AD00F730D0
:100A78002000A00020082100AE00F8302000A000CF
:100A880020082100AF00F9302000A0002008210034
:100A9800B000FA302000A00020082100B1000800B2
:100AA8003F302000A00020082100B2007F30200045
:100AB800A00020082100B3009F302000A0002008DB
:100AC8002100B400AF302000A00020082100B500AC
:100AD800BF302000A00020082100B600CF30200041
:100AE800A00020082100B700D7302000A00020086F
:100AF8002100B800DF302000A00020082100B90044
:100B0800E7302000A00020082100BA00EB302000C8
:100B1800A00020082100BB00EF302000A000200822
:100B28002100BC00F1302000A00020082100BD00F9
:100B3800F3302000A00020082100BE00F53020007E
:100B4800A00020082100BF00F7302000A0002008E6
:100B58002100C000F8302000A00020082100C100BA
:100B6800F9302000A00020082100C200FA3020003F
:100B7800A00020082100C30008002000AA002A08BD
:100B88006E07A000A101A10D2008A2002108A30062
:100B98000030A31BFF30A400A50021005708200047
:100BA800A600210058082000A700210059082000AD
:100BB800A80021005A082000A9000830A635A70D72
:100BC800A80DA90D890BE22D2608A2042708A30465
:100BD8002808A4042908A50425082100DA00200013
:100BE80024082100D900200023082100D800200073
:100BF80022082100D700570A031D0D2E580A031D8D
:100C08000D2E590A031D0D2E5A0A031D0D2E03140D
:100C1800080003100800F0302000AB002630AC00BC
:100C280066082B07860067082C3D87000108AD0081
:100C38002D08FA007A08AB002B08ED000130E60712
:100C48000030E73D67036604031D2C2EE601E7012B
:100C58007A088531C1258631031C3D2E2100E50126
:100C6800E6018F310527863170132000E401E50184
:100C7800422E01302100E5070030E63D21006608DC
:100C88006E02031D492E65086D0203180800E50170
:100C9800E6018F31052770132000E401E501080003
:100CA8007A082000A000A1012008A2002108A300C2
:100CB800852E20002208A100A001FF302004210079
:100CC800ED000030200021042100EE000800003073
:100CD80020002204A000FF302304A10021006D0899
:100CE800200020052100ED006E08200021052100CC
:100CF800EE0008007A082000A0002008EC00701719
:100D0800080021006608003A03198B2E962E650804
:100D1800013A03195D2E033A03196B2E013A0319A0
:100D28007E2E962E08002200B900BA01BB013B08AE
:100D3800803A2000D10080305102031DA62E1230C7
:100D480022003A020318080022003A08A03E860052
:100D58008701010839060319BA2ECE2E7A08813187
:100D6800E52108007A088031A820080022003B0805
:100D7800003A0319C02ECE2E3A08003A0319B22EB3
:100D8800013A0319B62E033A0319D42E013A03196E
:100D9800D42ECE2E01302200BA070030BB3D9B2E48
:100DA80008002000A6010030690202300319680219
:100DB800031CF22E6808FF3EA100FF30693DA20027
:100DC800F030A3002530A40021082307860022085C
:100DD800243D87000108A5002508FF2EF030A1005A
:100DE8002530A2006808210786006908223D87008F
:100DF8000108A3002308A600260A0319052F791065
:100E0800080000308E31F626080000302000AB00C4
:100E18000030AA000030A9000030A800201C1C2FB8
:100E28002408A8072508A93D2608AA3D2708AB3DA0
:100E38000130A435A50DA60DA70D890B1D2F013076
:100E4800A336A20CA10CA00C890B242F2308220482
:100E580021042004031D122F2B08A3002A08A20036
:100E68002908A1002808A0000800853154258731E9
:100E78008431E72487318731922787318F31D8270A
:100E880087318E31FC2687318F310F2787318731A3
:100E9800E727873122000C148F3156278731031832
:100EA800502F86310F268731701F602F20006C0865
:100EB800863197268731632F8631542687318731CB
:100EC80067278731502F20006D086E07A000200883
:100ED800ED0021005208031D762F20006D08240024
:100EE80099000800F0302000A0002530A100680813
:100EF8002007A2006908213DA300220886002308D4
:100F080087006D0881000130E8070030E93D69037A
:100F18006804031D0800E801E90108007914FF309E
:100F28002100C400FF30C500C701C6010030CB0056
:100F38000030CA000030C9000030C8008F31632774
:100F4800873120002030860000308700323084004E
:100F5800003085001030B10016001A00B10BB02F18
:100F6800B701B8012100D201CD012000E401E5015B
:100F780008002000A201A3012308803AA0008130C4
:100F88002002031DC92F0030220203180800F03088
:100F98002000A0002630A100220820078600230890
:100FA800213D87008101F030A0002530A1002208F2
:100FB800200786002308213D870081010130A20710
:100FC8000030A33DC02F701400302000E100003035
:100FD800E0000030DF000030DE00D601FF30D20034
:100FE800FF30D300DD01D401D501D701D801DB01E1
:060FF800DC0108000134D9
:101000008031DF288031EA288031FB2881310229B4
:10101000813109298131192981311C2981311E2908
:1010200081312029813122298131242981312629C8
:101030008131312981315B2981317C298131A0299C
:1010400082310B2A82311B2A8231312A8231392A9C
:101050008231432A82314E2A8231792A82319A2A78
:081060008231BE2A8231D32A3D
:101DCE0001340034FF34FF342000D601D401D50194
:101DDE00080072082000D8007108D7000800200003
:101DEE00A0002008240091000800210010162700F2
:101DFE0091159215210010140B140800FF302100CC
:101E0E00ED00FF30EE002000EC018E31EB260800D5
:101E1E000B138B138F3173278F318F3193270B1742
:101E2E008B1708002000A0002003031D212F220085
:101E3E000C14080022000C10080021006B08DD07AE
:101E4E006C08DE3D5E08F2005D08F1008E31F02672
:101E5E0008006400800101310130FE020030FF3BBA
:101E6E007F087E0403190034312F200069086306B1
:101E7E00031D432F68086206031D472F0314080035
:101E8E000310080023008C018D018E0120008C01AF
:101E9E008D018E0121008C018D018E010800200024
:101EAE006B086706031D5D2F6A086606031D612F0A
:101EBE00031408000310080052308600003087001B
:101ECE00203084000030850010302000B000160055
:101EDE001A00B00B6E2F08002400171319303D00A6
:101EEE00A2003C002208E0391638A2002400151783
:101EFE0095161508F0390438950017169413141317
:101F0E0015122100911520009111240011082000B6
:101F1E00A0002008A100080024001F131B303D0064
:101F2E0092001A309F003C001F08E0390F389F00C6
:101F3E0024001D179D161D08F03901389D001F162F
:101F4E009C131C131D1221009215200092112400C7
:101F5E0019082000A0002008A10008008F313C279E
:101F6E008F310318D42FF030F1002530F20020000D
:101F7E006208710786006308723D8700010824001D
:101F8E00910001302000E2070030E33D630362045C
:101F9E00031D0800E201E301080001302400910056
:101FAE0008002000EA01EB01E801E9018731BD27B5
:101FBE008F3132001F08F03907389F00C0309E0560
:101FCE008F314927FF3024008E00FF308D00FF3007
:101FDE008C0021000D170D160E1727000D120D1374
:101FEE008E1221008D1627008D128D138C100C1160
:0A1FFE0008000134003401340034FF
:020000040001F9
:08000E008CFFD2FDFFDFFFFFB4
:10E000000000000000000000000000000000000010
:10E010000000000000000000000000000000000000
:10E0200000000000000000000000000000000000F0
:10E0300000000000000000000000000000000000E0
:10E0400000000000000000000000000000000000D0
:10E0500000000000000000000000000000000000C0
:10E0600000000000000000000000000000000000B0
:10E0700000000000000000000000000000000000A0
:10E080000000000000000000000000000000000090
:10E090000000000000000000000000000000000080
:10E0A0000000000000000000000000000000000070
:10E0B0000000000000000000000000000000000060
:10E0C0000000000000000000000000000000000050
:10E0D0000000000000000000000000000000000040
:10E0E0000000000000000000000000000000000030
:10E0F0000000000000000000000000000000000020
:10E10000000000000000000000000000000000000F
:10E1100000000000000000000000000000000000FF
:10E1200000000000000000000000000000000000EF
:10E1300000000000000000000000000000000000DF
:10E1400000000000000000000000000000000000CF
:10E1500000000000000000000000000000000000BF
:10E1600000000000000000000000000000000000AF
:10E17000000000000000000000000000000000009F
:10E18000000000000000000000000000000000008F
:10E19000000000000000000000000000000000007F
:10E1A000000000000000000000000000000000006F
:10E1B000000000000000000000000000000000005F
:10E1C000000000000000000000000000000000004F
:10E1D000000000000000000000000000000000003F
:10E1E000000000000000000000000000000000002F
:10E1F000000000000000000000000000000000001F
:00000001FF
