:0400000080314C28D7
:1000060001347E14803120007F08F900911D3728C5
:1000160024001108F4007408FA007A08031930283D
:100026007D03FF3A7A07F400F030F5002630F6003B
:10003600210057087507F7005808763DF80077083D
:10004600860078088700740881008D31FE2580318E
:1000560001302100D7070030D83D2100580357044E
:10006600031D3728D701D8012000921D3C28F11026
:1000760092112700931D41288D315F252000911193
:10008600270093112000101210107908FF007E102F
:10009600090080314E28803103208031FD000B306D
:1000A60084008D30850021001200DE001200DF0082
:1000B6001200E0001200E1001200E2001200E3006C
:1000C600F0308400243085000030FE000330FF004D
:1000D6008D3139258031F001F101FC015930840060
:1000E600003085001630FE000030FF008D313925C6
:1000F6008031A0308400003085003E30FE000030A4
:10010600FF008D3139258031203084000130850093
:100116004A30FE000030FF008D3139258031A03095
:100126008400013085001230FE000030FF008D3162
:1001360039257E1020008F314D2F2000D70057081B
:10014600CB00CC014B08D5004C08D6005708CB0095
:10015600CC01CD01CE014E08D4004D08D3004C0889
:10016600D2004B08D1008D317E2580312000203011
:10017600860000308700593084000030850010303A
:10018600CB0016001A00CB0BC428F0189829A72913
:100196005508CC00CB01FF304B04D90000304C048D
:1001A600DF2800305504CB00FF305604CC00590838
:1001B6004B05D9005A084C05DA00A7295708CB0089
:1001C6004B08DB00A7295708CB004B08DC00570873
:1001D6008F31C0278031A72920005708CB004B0854
:1001E600DD005D0821003B060319A7298C31F424A4
:1001F6008031F010A72920005F0894295E08942911
:10020600610894296008942963089429620894294E
:100216005708CB004B08E40064088D312E25803149
:10022600A72901302000E5070030E63D0030E73D14
:100236000030E83D0C30593E86008701403FAF0054
:10024600413FB000423FB100433FB2008231D82265
:10025600803120002F08CB003008CC003108CD00BB
:100266003208CE001830CF00CE37CD0CCC0CCB0CDC
:10027600CF0B37297F290C30593E86008701403F36
:10028600AF00413FB000423FB100433FB200823170
:10029600D822803120002F08CB003008CC0031084E
:1002A600CD003208CE001030CF00CE37CD0CCC0CAE
:1002B600CB0CCF0B58297F290C30593E860087017D
:1002C600403FAF00413FB000423FB100433FB20064
:1002D6008231D822803120002F08CB003008CC0094
:1002E6003108CD003208CE000830CF00CE37CD0C15
:1002F600CC0CCB0CCF0B79294B08D0005008962993
:100306000C30593E86008701403FAF00413FB000A8
:10031600423FB100433FB2008231D82280312000F3
:100326002F08CB004B08EE00A7296A08003A0319EC
:100336009D29A72969088400103004020318A729FB
:1003460088310435003E820001302000E907003084
:10035600EA3D5A086A02031DB22959086902031CBC
:100366000800FF30D900FF30DA00E901EA01F01495
:1003760008002000D7005708CB00CC014B08D50059
:100386004C08D6005708CB00CC01CD01CE014E0853
:10039600D4004D08D3004C08D2004B08D1008F3151
:1003A60019278131A92A8E31BE26813120005508B0
:1003B600CC00CB01FF304B042100B20000302000FE
:1003C6004C04F42900305504CB00FF305604CC0011
:1003D6002100320820004B052100B200330820001E
:1003E6004C052100B300022A5708CB004B08210018
:1003F600B400022A5708CB004B082100B5002000A4
:1004060057088F2A5708013ECB004B082100BB0036
:100416003B0820008F2A01302100B6070030B73D87
:100426000030B83D0030B93D0430B23E8600870149
:10043600403F2000AF00413FB000423FB100433F84
:10044600B2008231D822813120002F08CB0030083B
:10045600CC003108CD003208CE001830CF00CE37A0
:10046600CD0CCC0CCB0CCF0B322A7A2A0430B23E00
:1004760086008701403FAF00413FB000423FB100D8
:10048600433FB2008231D822813120002F08CB00B1
:100496003008CC003108CD003208CE001030CF0035
:1004A600CE37CD0CCC0CCB0CCF0B532A7A2A04308A
:1004B600B23E86008701403FAF00413FB000423F59
:1004C600B100433FB2008231D822813120002F088B
:1004D600CB003008CC003108CD003208CE00083001
:1004E600CF00CE37CD0CCC0CCB0CCF0B742A4B08DF
:1004F600D0005008912A0430B23E86008701403F62
:10050600AF00413FB000423FB100433FB2008231ED
:10051600D822813120002F08CB004B08EE00B92AE3
:100526007B1C9B2A22000C142100C001C00A9F2AB2
:1005360022000C102100C0013B082000CB004B0814
:10054600EE007B108D318E258131B92A20006A0894
:10055600003A0319AF2AB92A690884000A3004024E
:100566000318B92A88310435203E82007B1CBE2A36
:100576002000EE01EE0A01302000E9070030EA3DD6
:100586002100330820006A02031DCD2A210032080B
:1005960020006902031C0800FF302100B200FF3072
:1005A600B3002000E901EA01080000302000CA007B
:1005B6000030C9000030C8000030C7003208CA0049
:1005C6003108C9003008C8002F08C7000030BA003B
:1005D6000030B9000030B8000030B7000030C0006D
:1005E6000030BF000030BE000030BD00C501C601AE
:1005F600CA1B072B4A08031D0F2B4908031D0F2B87
:100606000130480203180F2B4A08C0004908BF00F2
:100616004808BE0047082A2B0030A3000030A2007D
:100626000030A100FF30A0004A08A7004908A60034
:100636004808A5004708A40085310325823120001B
:100646002308C0002208BF002108BE002008BD0004
:100656000030A3000030A2000030A100FF30A0004F
:100666004A08A7004908A6004808A5004708A400AC
:1006760084318124823120002008C7002108C80067
:10068600890D893B8909C900CA000030C4000030C1
:10069600C3000030C2000130C1004608803AB300F2
:1006A60080303302031D592B01304502031C872B72
:1006B6002000BB01BC013C08803AB3004608803AE2
:1006C6003302031D682B45083B020318872B2000C5
:1006D6004108B3004208B4004308B5004408B60018
:1006E6000830B335B40DB50DB60D890B742B36082D
:1006F600C4003508C3003408C2003308C100013005
:10070600BB070030BC3D5E2B20004008A3003F081D
:10071600A2003E08A1003D08A0004408A700430827
:10072600A6004208A5004108A4008E31E9268231C0
:1007360020002008B7072108B83D2208B93D230844
:10074600BA3DCA1BB52B4A08031DB02B4908031D29
:10075600B02B01304802031CB52B0130C507003011
:10076600C63DFB2A3A08B2003908B1003808B00085
:100776003708AF0008002000BB003B08B100B201FB
:100786003108B9003208BA003B08B100B201B30122
:10079600B4013408B8003308B7003208B60031088F
:1007A600B5008D317E258331200020308600003053
:1007B600870059308400003085001030B1001600E3
:1007C6001A00B10BE22BF018292C392C3908B2008B
:1007D600B101FF303104D90000303204FD2B003066
:1007E6003904B100FF303A04B20059083105D90086
:1007F6005A083205DA00392C3B08B1003108DB0013
:10080600392C3B08B1003108DC00392C3B08B1001B
:100816003108DD005D0821003B060319172C8C31D9
:10082600F4248331F010392C031022000C1C03141D
:10083600031C202C22000C14222C22000C107014F5
:1008460000302100C700F030C800392C20006A08AB
:10085600003A03192F2C392C69088400053004024C
:100866000318392C88310435403E8200701C592CFF
:10087600003020006A02053003196902031C592C56
:10088600210048082000A100210047082000A00000
:100896008E3120268331210049082000B10031081D
:1008A600EE0001302100C7070030C83D01302000AE
:1008B600E9070030EA3D2100330820006A02031DE3
:1008C600682C2100320820006902031C742CFF30BA
:1008D6002100B200FF30B3002000E901EA01F01464
:1008E6007010F03021004802FF3003194702031C44
:1008F60008002000E901EA01F01408002000AA011E
:10090600A31F922CA009A109A209A309A00A0319F1
:10091600A10A0319A20A0319A30AAA01AA0AA71F70
:10092600A32CA409A509A609A709A40A0319A50ABF
:100936000319A60A0319A70A0130A8002808AA065F
:100946000030AE000030AD000030AC000030AB002F
:1009560023082204210420040319EC2CA901A90A66
:10096600A31BC12C0130A035A10DA20DA30D890B2F
:10097600B62C0130A8002808A907B32C0130AB35E6
:10098600AC0DAD0DAE0D890BC22C23082702031D3D
:10099600D62C22082602031DD62C21082502031D6B
:1009A600D62C20082402031CE12C2008A4022108CE
:1009B600A53B2208A63B2308A73B2B140130A336F0
:1009C600A20CA10CA00C890BE22C0130A902031D7C
:1009D600C12C2A080319FA2CAB09AC09AD09AE09DA
:1009E600AB0A0319AC0A0319AD0A0319AE0A2E089D
:1009F600A3002D08A2002C08A1002B08A0000800C7
:100A06002000AA01A71F142DA409A509A609A70954
:100A1600A40A0319A50A0319A60A0319A70AAA0113
:100A2600AA0AA31F212DA009A109A209A309A00AA8
:100A36000319A10A0319A20A0319A30A2308220407
:100A46002104200403195A2DA901A90AA31B372D35
:100A56000130A035A10DA20DA30D890B2C2D01305F
:100A6600A8002808A907292D23082702031D452DBC
:100A760022082602031D452D21082502031D452DAA
:100A860020082402031C4F2D2008A4022108A53BA0
:100A96002208A63B2308A73B0130A336A20CA10CD3
:100AA600A00C890B502D0130A902031D372D2A08F1
:100AB6000319682DA409A509A609A709A40A0319FB
:100AC600A50A0319A60A0319A70A2708A3002608D8
:100AD600A2002508A1002408A00008003F3020003D
:100AE600A00020082300A0007F302000A0002008DE
:100AF6002300A1009F302000A00020082300A200B0
:100B0600AF302000A00020082300A300BF30200043
:100B1600A00020082300A400CF302000A000200859
:100B26002300A500D7302000A00020082300A6003F
:100B3600DF302000A00020082300A700E7302000B7
:100B4600A00020082300A800EB302000A000200809
:100B56002300A900EF302000A00020082300AA00EF
:100B6600F1302000A00020082300AB00F330200065
:100B7600A00020082300AC00F5302000A0002008CB
:100B86002300AD00F7302000A00020082300AE00AF
:100B9600F8302000A00020082300AF00F930200024
:100BA600A00020082300B000FA302000A000200892
:100BB6002300B10008003F302000A00020082200DA
:100BC600D8007F302000A00020082200D9009F30E6
:100BD6002000A00020082200DA00AF302000A0008C
:100BE60020082200DB00BF302000A00020082200E1
:100BF600DC00CF302000A00020082200DD00D73026
:100C06002000A00020082200DE00DF302000A00027
:100C160020082200DF00E7302000A0002008220084
:100C2600E000EB302000A00020082200E100EF30B9
:100C36002000A00020082200E200F1302000A000E1
:100C460020082200E300F3302000A0002008220044
:100C5600E400F5302000A00020082200E500F7306F
:100C66002000A00020082200E600F8302000A000A6
:100C760020082200E700F9302000A000200822000A
:100C8600E800FA302000A00020082200E900080051
:100C96003F302000A00020082100A0007F30200067
:100CA600A00020082100A1009F302000A0002008FD
:100CB6002100A200AF302000A00020082100A300E0
:100CC600BF302000A00020082100A400CF30200063
:100CD600A00020082100A500D7302000A000200891
:100CE6002100A600DF302000A00020082100A70078
:100CF600E7302000A00020082100A800EB302000EB
:100D0600A00020082100A900EF302000A000200844
:100D16002100AA00F1302000A00020082100AB002D
:100D2600F3302000A00020082100AC00F5302000A0
:100D3600A00020082100AD00F7302000A000200808
:100D46002100AE00F8302000A00020082100AF00EE
:100D5600F9302000A00020082100B000FA30200061
:100D6600A00020082100B10008002000AA002A08DF
:100D76007D07A000A101A10D2008A2002108A30063
:100D86000030A31BFF30A400A5002100410820006D
:100D9600A600210042082000A700210043082000E9
:100DA600A800210044082000A9000830A635A70D98
:100DB600A80DA90D890BD92E2608A2042708A3047D
:100DC6002808A4042908A50425082100C400200039
:100DD60024082100C300200023082100C2002000AF
:100DE60022082100C100410A031D042F420A031DE7
:100DF600042F430A031D042F440A031D042F031462
:100E060008000310080020006E087D07A0002008D7
:100E1600EE0021004008031D352F20006E08240037
:100E26009900F114F118152FF0302000A00025309C
:100E3600A1006B082007A2006C08213DA300220830
:100E4600860023088700240019088100013020004D
:100E5600EB070030EC3D6C036B04031D0800EB014F
:100E6600EC010800F0302000A0002530A1006B083E
:100E76002007A2006C08213DA30022088600230853
:100E860087006E0881000130EB070030EC3D6C03F3
:100E96006B04031D0800EB01EC010800F030200094
:100EA600AB002630AC002100550820002B07860039
:100EB6002100560820002C3D87000108AD002D08B2
:100EC600FC007C08AB002B08EE0001302100D507A2
:100ED6000030D63D56035504031D732FD501D601A8
:100EE6007C088631B8268731031C842F2100D30164
:100EF600D4018D311A258731F0132000E901EA016A
:100F0600892F01302100D3070030D43D2100540839
:100F16006302031D902F5308620203180800D301D1
:100F2600D4018D311A25F0132000E901EA010800E9
:100F36007C082000A000A1012008A2002108A3002F
:100F4600CC2F20002208A100A001FF3020042100A0
:100F5600E2000030200021042100E30008000030F8
:100F660020002204A000FF302304A1002100620813
:100F7600200020052100E200630820002105210051
:100F8600E30008007C082000A0002008ED00F01710
:100F9600080021005408003A0319D22FDD2F530808
:100FA600013A0319A42F033A0319B22F013A031980
:100FB600C52FDD2F080024001F131B303D009200B3
:100FC6001A309F003C001F08E0390F389F002400AC
:100FD6001D139D161D08F03901389D001F169C1320
:100FE6001C131D12210092152000921124001908CD
:100FF6002000A0002008A10008008031CB28803105
:10100600D4288031E1288031E6288031EF288031EC
:10101600FE28813101298131032981310529813158
:1010260007298131092981310B298131142981311F
:101036003E2981315F29813183298131D629813148
:10104600E5298131F7298131FD298231052A82314D
:101056000E2A8231392A82315A2A82317E2A8231F7
:10106600932A8F319D2F8F31A12F8F31BF2F8F3133
:10107600BF2F8F31BF2F8F31A52F8331E92B8331BE
:0E108600F22B8331FF2B8431042C8431092C92
:1019E8002000DD01DB01DC01080022002108F300F2
:1019F8002008F200080073082000DF007208DE00EB
:101A080008002000A00020082400910008000134EC
:101A1800003468340134FF34FF34210010162700E5
:101A280091159215210010140B140800FF302100A5
:101A3800E200FF30E3002000ED018C31F4240800BF
:101A48000B138B138D31DE258D318731DE270B1774
:101A58008B1708002000A0002003031D362D22004C
:101A68000C14080022000C100800640080010131E9
:101A78000130FE020030FF3B7F087E04031900346A
:101A88003A2D23008C018D018E0120008C018D01DF
:101A98008E0121008C018D018E010800210058085B
:101AA8005606031D592D57085506031D5D2D0314B1
:101AB8000800031008008C31F9248D3172082100C8
:101AC800E0077308E13D6108F3006008F2008C311B
:101AD800FF24080020006C0821005006031D782D03
:101AE80020006B0821004F06031D7C2D03140800FD
:101AF8000310080059308600003087002030840029
:101B08000030850010302000B00016001A00B00B1D
:101B1800892D080000302000E8000030E700003080
:101B2800E6000030E500DD01FF30D900FF30DA00C3
:101B3800E401DB01DC016830DE000130DF00E20196
:101B4800E3010800F01400302000E8000030E7004E
:101B58000030E6000030E500DD01FF30D900FF303D
:101B6800DA00E401DB01DC016830DE000130DF006F
:101B7800E201E30108002000A0002003031DCA2D94
:101B880001302200A0000030A1000800023020002F
:101B98002006031DD52DFF302200A000FF30A10034
:101BA8000800033020002006031D08002200A001C1
:101BB800A10108002400171319303D00A2003C00C1
:101BC8002208E0391638A2002400151795161508C2
:101BD800F0390438950017169413141315122100C0
:101BE800911520009111240011082000A000200860
:101BF800A10008008D316E258D3103181D2EF0309F
:101C0800F2002530F30021004F08720786005008C3
:101C1800733D870001082400910001302100CF079F
:101C28000030D03D50034F04031D0800CF01D00100
:101C3800080024009101080020002108A2002208C1
:101C4800A3002008A2002208A400310015172000D4
:101C58002408310091002000230831009200151457
:101C6800151413082000A20022082100C900310021
:101C780014082000A20022082100CA00080022003F
:101C8800A001A1010030A2000030A3000030A40090
:101C98000030A5000030A6000030A7000030A800E2
:101CA8000030A9000030AA000030AB000030AC00C2
:101CB8000030AD000030AE000030AF000030B000A2
:101CC8000030B1000030B2000030B300080021003D
:101CD800D701D8012000EB01EC018E3194268E311A
:101CE80032001F08F03907389F00C0309E058D313B
:101CF8004525FF3024008E00FF308D00FF308C001A
:101D080021000D170D160E1727000D120D138E1238
:101D180021008D1627008D128D138C100C110800D0
:101D28002000A201A3012308803AA00081302002EC
:101D3800031DA02E0030220203180800F0302000F6
:101D4800A0002630A1002208200786002308213D94
:101D580087008101F030A0002530A100220820076B
:101D680086002308213D870081010130A207003049
:101D7800A33D972E7B14FF302100B200FF30B30043
:101D8800B501B4010030B9000030B8000030B70028
:101D98000030B6008D317E258E312000203086003F
:101DA8000030870032308400003085001030B100E8
:101DB80016001A00B10BDC2EB701B8012100C001D2
:101DC800BB012000E901EA01080000302000AB0057
:101DD8000030AA000030A9000030A800201CFC2E0A
:101DE8002408A8072508A93D2608AA3D2708AB3DD1
:101DF8000130A435A50DA60DA70D890BFD2E0130C8
:101E0800A336A20CA10CA00C890B042F23082204D2
:101E180021042004031DF22E2B08A3002A08A20087
:101E28002908A1002808A00008002000A601003009
:101E38006C02023003196B02031C362F6B08FF3E3D
:101E4800A100FF306C3DA200F030A3002530A400B3
:101E58002108230786002208243D87000108A500E1
:101E68002508432FF030A1002530A2006B08210778
:101E780086006C08223D87000108A3002308A600FD
:101E8800260A0319492F7B10080001308D310525DA
:101E9800080086314B268F31853171258F31853188
:101EA800DE258F318E31BE268F318E316B268F31F4
:101EB8008D3111258F318D3124258F318D31A62516
:101EC8008F318E3143268F3122000C148D315225EB
:101ED8008F3103186A2F873151278F31F01F7A2FDE
:101EE80020006D088F3181278F317D2F87319B2707
:101EF8008F31873106278F316A2F2100E400E501F1
:101F0800E6016608803A2000D80080305802031D98
:101F1800902F12302100650203180800210065087F
:101F2800583E860001308700010864060319A92F6E
:101F3800B92F7C088131BC2108007C088031A020A1
:101F480008007C088331BE23080021006608003A97
:101F58000319AF2FB92F650884000630040203184F
:101F6800B92F88310435343E820001302100E5075D
:101F78000030E63D852F08002000A200A301A4013F
:101F88002408803AA10080302102031DCD2F123091
:101F980023020318080020002308A03E8600013011
:101FA8008700010822060319E22FF92F01308D312D
:101FB800BF25080002308D31BF2508002000240805
:101FC800003A0319E82FF92F2308003A0319FF2FC5
:101FD800013A0319DA2F033A0319DE2F013A0319DC
:101FE800FF2F053A0319FF2FF92F01302000A3070F
:101FF8000030A43DC42F08000134003401340034FB
:020000040001F9
:08000E008CFFD2FDFFDFFFFFB4
:10E0000000000000000000000100450043004F0038
:10E0100042004F00540020004C00430043002E00FB
:10E0200000000000000000000200000000000000EE
:10E0300001000000000000000000020000000000DD
:10E0400000000100000000000000000003000300C9
:10E05000010000002800030002000000640003002B
:10E06000030000004800030004000000C800030093
:10E07000050000000000030006000000520003003D
:10E080000700000000000200080000000200090074
:10E09000000002000A00010003000B000000000065
:10E0A00003000C000000000003000D000000B4009D
:10E0B00003000E000000000003000F00000000003D
:10E0C0000300100000000000030011000000000029
:10E0D0000300120000000000030013000000000015
:10E0E0000000000000000000FE0000000000000032
:10E0F0000000000000000000000000000000000020
:10E10000000000000000000000000000000000000F
:10E1100000000000000000000000000000000000FF
:10E1200000000000000000000000000000000000EF
:10E1300000000000000000000000000000000000DF
:10E1400000000000000000000000000000000000CF
:10E1500000000000000000000000000000000000BF
:10E1600000000000000000000000000000000000AF
:10E17000000000000000000000000000000000009F
:10E18000000000000000000000000000000000008F
:10E19000000000000000000000000000000000007F
:10E1A000000000000000000000000000000000006F
:10E1B000000000000000000000000000000000005F
:10E1C000000000000000000000000000000000004F
:10E1D000000000000000000000000000000000003F
:10E1E000000000000000000000000000000000002F
:00000001FF
