:0400000080315A28C9
:100008007E14803120007F08F700911D2A28F030E7
:10001800F3002630F4004A087307F5004B08743DD6
:10002800F60075088600760887002400110881000C
:1000380085315525803101302000CA070030CB3D7D
:100048004B034A04031D2A28CA01CB0135080319AA
:10005800921D4A28F030F3002530F4004808730751
:10006800F5004908743DF600750886007608870093
:1000780024001908810001302000C8070030C93D5C
:1000880049034804031D4A28C801C9012700931DD4
:100098004F2886314D262700931120009111921187
:1000A800101010127708FF007E10090080315C28BC
:1000B80086318C268031EC0086318D268031ED002A
:1000C80086318E268031EE0086318F268031EF0012
:1000D800F0308400243085000030FE000330FF003B
:1000E800863141268031F001F9012030840000304A
:1000F80085003230FE000030FF0086314126803115
:10010800A0308400003085004730FE000030FF003A
:10011800863141267E10200084318F2C2100ED008D
:100128006D082000E300E40163082100EB002000D3
:1001380064082100EC006D082000E300E401E501FB
:10014800E60166082100EA00200065082100E900B0
:10015800200064082100E800200063082100E7006F
:1001680086310A2680312000523086000030870010
:1001780020308400003085001030E30016001A009B
:10018800E30BC228F8185829672922000C1421000B
:100198006B082000E400E3016308B6006408B700B8
:1001A800672922000C1021006B0820003604A000EB
:1001B80021006C0820003704A100672921006D0880
:1001C8002000E3006308A200672921006D082000D1
:1001D800E3006308A300672921006D082000E300FD
:1001E8006308A40024083006031967298531F92516
:1001F8008031F81067292000260854292508542939
:1002080028085429270854292A0854292908542930
:1002180021006D082000E3006308AB002B0886313D
:1002280059268031672901302000AC070030AD3DE8
:100238000030AE3D0030AF3D2C08E3002D08E4004F
:100248002E08E5002F08E6001830E636E50CE40C29
:10025800E30C890B29294F292C08E3002D08E40019
:100268002E08E5002F08E6001030E636E50CE40C11
:10027800E30C890B39294F292C08E3002D08E400E9
:100288002E08E5002F08E6000830E636E50CE40CF9
:10029800E30C890B49296308E700670856292C08ED
:1002A800E3006308D10067294508003A03195D296E
:1002B800672944088400103004020318672985312F
:1002C8000435973E820001302000C4070030C53D48
:1002D80021084502031D722920084402031C080056
:1002E800B601B70100302100E2000030E100003023
:1002F800E0000030DF00FF302000A000FF30A10048
:10030800C401C501F81408002000E5006508D900FB
:10031800DA015908E3005A08E4006508D900DA014F
:10032800DB01DC015C08E1005B08E0005A08DF0043
:100338005908DE00843157248131F8183E2A4E2AA4
:100348008531B725813120006308DA00D901FF30F3
:1003580059042100D600003020005A04C229003078
:100368006304D900FF306404DA0021005608200035
:1003780059052100D600570820005A052100D7004A
:10038800D0296508D90059082100D800D029650866
:10039800D90059082100D900200065083A2A6508C3
:1003A800013ED9005908B000392A01302100DA0786
:1003B8000030DB3D0030DC3D0030DD3D5A082000D8
:1003C800D90021005B082000DA0021005C08200029
:1003D800DB0021005D082000DC001830DC36DB0C77
:1003E800DA0CD90C890BF229282A21005A08200096
:1003F800D90021005B082000DA0021005C082000F9
:10040800DB0021005D082000DC001030DC36DB0C4E
:10041800DA0CD90C890B0A2A282A21005A0820004C
:10042800D90021005B082000DA0021005C082000C8
:10043800DB0021005D082000DC000830DC36DB0C26
:10044800DA0CD90C890B222A5908DD005D083C2AF0
:1004580021005A0820003A2A781C352AB501B50A25
:10046800362AB50122000C1020003008D90059089E
:10047800D1004E2A20004508003A0319442A4E2A82
:10048800440884000A30040203184E2A85310435D2
:10049800E53E820001302000C4070030C53D210040
:1004A80056082000D9005908E2002100570820000A
:1004B8004502031D632A2100560820004402031C3C
:1004C8000800FF302100D600FF30D7002000C4010B
:1004D800C501F81408003F302000D200520821005E
:1004E800B2007F302000D20052082100B3009F30B4
:1004F8002000D20052082100B400AF302000D20002
:1005080052082100B500BF302000D2005208210057
:10051800B600CF302000D20052082100B700D730F3
:100528002000D20052082100B800DF302000D2009D
:1005380052082100B900E7302000D20052082100FB
:10054800BA00EB302000D20052082100BB00EF3087
:100558002000D20052082100BC00F1302000D20057
:1005680052082100BD00F3302000D20052082100BB
:10057800BE00F5302000D20052082100BF00F7303D
:100588002000D20052082100C000F8302000D2001C
:1005980052082100C100F9302000D2005208210081
:1005A800C200FA302000D20052082100C30008001F
:1005B8003F302000D20052082100C4007F302000C4
:1005C800D20052082100C5009F302000D2005208F6
:1005D8002100C600AF302000D20052082100C70019
:1005E800BF302000D20052082100C800CF302000C0
:1005F800D20052082100C900D7302000D20052088A
:100608002100CA00DF302000D20052082100CB00B0
:10061800E7302000D20052082100CC00EB30200047
:10062800D20052082100CD00EF302000D20052083D
:100638002100CE00F1302000D20052082100CF0066
:10064800F3302000D20052082100D000F5302000FD
:10065800D20052082100D100F7302000D200520801
:100668002100D200F8302000D20052082100D30027
:10067800F9302000D20052082100D400FA302000BE
:10068800D20052082100D5000800F0302000DB001D
:100698002630DC0046085B07860047085C3D87007B
:1006A8000108DD005D08F9007908DB005B08D1006E
:1006B8000130C6070030C73D79088331D62383311E
:1006C800031C772B22000C102000C001C101C601B9
:1006D800C701863177268331F0122000CA01CB0189
:1006E800C401C5017C2B01302000C0070030C13D8A
:1006F80041086F02031D822B40086E020318080090
:10070800C001C101C601C70186317726F012200059
:10071800CA01CB01C401C501080079082000D20034
:10072800D3015208D4005308D500B62B5408D3007F
:10073800D201FF305204EE0000305304AE2B0030DB
:100748005404D200FF305504D3006E085205EE0061
:100758006F085305EF00C92B7908D2005208D00062
:10076800F016C92B4108003A0319BB2BC92B4008C6
:10077800003A0319C92B013A03199A2B033A0319B2
:10078800A32B013A0319B02BC92B47034604031DB9
:10079800CF2BC601C70143034204031D0800C20151
:1007A800C30108002000DA005A08D200D301D4019E
:1007B800D501210063082000D6002100640820002C
:1007C800D700210065082000D80021006608200015
:1007D800D9000830D635D70DD80DD90D890BEE2B99
:1007E8005608D2045708D3045808D4045908D50425
:1007F80055082100E600200054082100E5002000EB
:1008080053082100E400200052082100E300630A95
:10081800031D192C640A031D192C650A031D192CC4
:10082800660A031D192C0314080003100800200091
:10083800E900EA01EB016B08803AE80080306802C1
:10084800031D282C12306A020318080020006A08C9
:10085800B23E860087010108690603193C2C502C1A
:1008680079088131882108007908803192200800B0
:1008780020006B08003A0319422C502C6A08003AF1
:100888000319342C013A0319382C033A0319562C4E
:10089800013A0319562C502C01302000EA07003089
:1008A800EB3D1F2C08002000D8010030490202301F
:1008B80003194802031C742C4808FF3ED300FF307C
:1008C800493DD400F030D5002530D60053085507EF
:1008D80086005408563D87000108D7005708812C28
:1008E800F030D3002530D400480853078600490863
:1008F800543D87000108D5005508D800580A031947
:10090800892C22000C147810080022000C100030EA
:100918008631802608008231DC22843182316F22C0
:1009280084318531B72584318431E7248431863197
:100938006E2684318631642684318531CE25843112
:1009480022000C1486311A2684310318A62C833110
:1009580049238431F01EB62C2000500884311B2412
:100968008431B92C83319123843185310F25843129
:10097800A62C2000D401D5015508803AD200813038
:100988005202031DC92C0030540203180800F0302D
:100998002000D2002630D30054085207860055089C
:1009A800533D87008101F030D2002530D300540830
:1009B800520786005508533D870081010130D4074E
:1009C8000030D53DC02C2000CA01CB01C801C901A7
:1009D8008431BD24843132001F08F03907389F0064
:1009E800C0309E0586312726FF3024008E00FF3058
:1009F8008D00FF308C0021000D170D160E172700F3
:100A08000D120D138E1221008D1627008D128D13D5
:100A18008C100C11080020003508031D172D5108F3
:100A2800240099000800F0302000D2002530D300BF
:100A380048085207D4004908533DD5005408860099
:100A480055088700510881000130C8070030C93DAA
:100A580049034804031D0800C801C901080024000F
:100A68001F131B303D0092001A309F003C001F08E6
:100A7800E0390F389F0024001D179D161D08F03916
:100A880001389D001F169C131C131D12210092157E
:100A980020009211240019082000D2005208D30027
:100AA80008008631342685310318742DF030F100A2
:100AB8002530F20020004208710786004308723D85
:100AC800870001082400910001302000C20700308F
:100AD800C33D43034204031D0800C201C3010800CB
:100AE8002400910108002400171319303D00A200CA
:100AF8003C002208E0391638A20024001517951684
:100B08001508F039043895001716941314131512A4
:100B18002100911520009111240011082000D20015
:100B28005208D30008008031C9288031D528803187
:100B3800E2288031E9288031F0288031FF2881318E
:100B4800022981310429813106298131082981311D
:100B58000A2981310C2981311729813130298131C4
:100B68004029813153297814FF302100D600FF3005
:100B7800D700D901D8010030DD000030DC0000309A
:100B8800DB000030DA002000B501B001C401C50166
:100B9800F8140800F81400302000AF000030AE0050
:100BA8000030AD000030AC00A401FF30A000FF30E1
:100BB800A100AB01A201A301A501A601A901AA01F7
:100BC80008008131A4298131B3298131C5298131B6
:100BD800CB298131D3298131D9298131F929823130
:100BE800112A82312C2A8231302A00302000AF00AD
:100BF8000030AE000030AD000030AC00A401FF3082
:100C0800A000FF30A100A201A30108002030860047
:100C180000308700523084000030850010302000FA
:100C2800E20016001A00E20B152E080020004B08FF
:100C38004706031D212E4A084606031D252E0314C8
:100C480008000310080023008C018D018E0120008C
:100C58008C018D018E0121008C018D018E0108000F
:100C6800200049084306031D3B2E48084206031D81
:100C78003F2E0314080003100800640080010131AE
:100C88000130FE020030FF3B7F087E040319003468
:100C9800422E20006C08B8076D08B93D3908F200EB
:100CA8003808F1008631862608002000D200520359
:100CB800031D612E22000C14080022000C100800ED
:100CC8000B138B13853177258631853133250B1727
:100CD8008B17080021001016270091159215210086
:100CE80010140B140800FF302000EE00FF30EF0056
:100CF800D0018531F92508002000D20052082400CF
:100D08009100080072082000A6007108A5000800DC
:100D180001340034FF34FF3401340034013400342A
:020000040001F9
:08000E008CFFD2FDFFDFFFFFB4
:10E000000000000000000000000000000000000010
:10E010000000000000000000000000000000000000
:10E0200000000000000000000000000000000000F0
:10E0300000000000000000000000000000000000E0
:10E0400000000000000000000000000000000000D0
:10E0500000000000000000000000000000000000C0
:10E0600000000000000000000000000000000000B0
:10E0700000000000000000000000000000000000A0
:10E080000000000000000000000000000000000090
:10E090000000000000000000000000000000000080
:10E0A0000000000000000000000000000000000070
:10E0B0000000000000000000000000000000000060
:10E0C0000000000000000000000000000000000050
:10E0D0000000000000000000000000000000000040
:10E0E0000000000000000000000000000000000030
:10E0F0000000000000000000000000000000000020
:10E10000000000000000000000000000000000000F
:10E1100000000000000000000000000000000000FF
:10E1200000000000000000000000000000000000EF
:10E1300000000000000000000000000000000000DF
:10E1400000000000000000000000000000000000CF
:10E1500000000000000000000000000000000000BF
:10E1600000000000000000000000000000000000AF
:10E17000000000000000000000000000000000009F
:10E18000000000000000000000000000000000008F
:10E19000000000000000000000000000000000007F
:10E1A000000000000000000000000000000000006F
:10E1B000000000000000000000000000000000005F
:10E1C000000000000000000000000000000000004F
:10E1D000000000000000000000000000000000003F
:10E1E000000000000000000000000000000000002F
:10E1F000000000000000000000000000000000001F
:00000001FF
