:0400000080316028C3
:1000060001347E14803120007F08F800911D3028CD
:100016007A03FF3A24001107F300F030F40025308C
:10002600F500200064087407F6006508753DF700C2
:100036007608860077088700730881008731D927FC
:10004600803101302000E4070030E53D650364049B
:10005600031D5428E401E5015428921D4F28F03071
:10006600F3002630F4006A087307F5006B08743D48
:10007600F6007508860076088700240019088100B6
:1000860001302000EA070030EB3D6B036A04031DD4
:100096005428EA01EB0154282700931D54288F3178
:1000A6002D27200091119211270093112000101284
:1000B60010107808FF007E10090080316228803118
:1000C60003208031FA0021008731FC278031EC00C3
:1000D6008731FD278031ED008731FE278031EE0024
:1000E6008731FF278031EF00F0308400243085000F
:1000F6000030FE000330FF008F3139278031F001D8
:1001060052308400003085001D30FE000030FF00B4
:100116008F3139278031A0308400003085004C3083
:10012600FE000030FF008F313927803120308400F7
:10013600013085001230FE000030FF008F31392774
:100146007E10200087312B2F2200B80038082000AF
:10015600CB00CC014B082200B60020004C08220040
:10016600B70038082000CB00CC01CD01CE014E08E7
:100176002200B50020004D082200B40020004C08E3
:100186002200B30020004B082200B2008F316F27F7
:1001960080312000203086000030870052308400F5
:1001A600003085001030CB0016001A00CB0BD72884
:1001B6007019B429C329220036082000CC00CB01CF
:1001C600FF304B04D20000304C04F82800302200E7
:1001D60036042000CB00FF30220037042000CC007C
:1001E60052084B05D20053084C05D300C329220000
:1001F60038082000CB004B08D400C3292200380859
:100206002000CB004B08D500C32922003808200067
:10021600CB004B08D600560821004D060319C3290A
:100226008E31F42680317011C32920005808B02978
:100236005708B0295A08B0295908B0295C08B029CE
:100246005B08B029220038082000CB004B08DD00EF
:100256005D088F3122278031C32901302000DE0757
:100266000030DF3D0030E03D0030E13D0C30523ED5
:1002760086008701403FAF00413FB000423FB100DA
:10028600433FB20083310423803120002F08CB0086
:100296003008CC003108CD003208CE001830CF002F
:1002A600CE37CD0CCC0CCB0CCF0B53299B290C3065
:1002B600523E86008701403FAF00413FB000423FBB
:1002C600B100433FB20083310423803120002F0860
:1002D600CB003008CC003108CD003208CE001030FB
:1002E600CF00CE37CD0CCC0CCB0CCF0B74299B2971
:1002F6000C30523E86008701403FAF00413FB000C0
:10030600423FB100433FB2008331042380312000D5
:100316002F08CB003008CC003108CD003208CE00C3
:100326000830CF00CE37CD0CCC0CCB0CCF0B95299B
:100336004B08D0005008B2290C30523E8600870187
:10034600403FAF00413FB000423FB100433FB200E3
:1003560083310423803120002F08CB004B08ED00A9
:10036600C3296908003A0319B929C3296808840012
:10037600103004020318C32988310435003E820078
:1003860001302000E8070030E93D53086902031DEB
:10039600CE2952086802031C0800FF30D200FF3045
:1003A600D300E801E901701508002200B8003808FA
:1003B6002000CB00CC014B082200B60020004C08E0
:1003C6002200B70038082000CB00CC01CD01CE01B9
:1003D6004E082200B50020004D082200B40020007F
:1003E6004C082200B30020004B082200B2008631E0
:1003F600C7268131D92A87318427813122003608E0
:100406002000CC00CB01FF304B042100C40000309B
:1004160020004C04212A0030220036042000CB00A4
:10042600FF30220037042000CC00210044082000C1
:100436004B052100C400450820004C052100C500DD
:10044600332A220038082000CB004B082100C600C2
:10045600332A220038082000CB004B082100C700B1
:10046600220038083F2A22003808013E2000CB002F
:100476004B082100CD004D082000C22A0130210082
:10048600C8070030C93D0030CA3D0030CB3D0430BE
:10049600C43E86008701403F2000AF00413FB000C8
:1004A600423FB100433FB200833104238131200033
:1004B6002F08CB003008CC003108CD003208CE0022
:1004C6001830CF00CE37CD0CCC0CCB0CCF0B652A19
:1004D600AD2A0430C43E86008701403FAF00413F4D
:1004E600B000423FB100433FB20083310423813163
:1004F60020002F08CB003008CC003108CD00320890
:10050600CE001030CF00CE37CD0CCC0CCB0CCF0BA1
:10051600862AAD2A0430C43E86008701403FAF00DC
:10052600413FB000423FB100433FB2008331042354
:10053600813120002F08CB003008CC003108CD00D7
:100546003208CE000830CF00CE37CD0CCC0CCB0C09
:10055600CF0BA72A4B08D0005008C42A0430C43E4B
:1005660086008701403FAF00413FB000423FB100E7
:10057600433FB20083310423813120002F08CB0092
:100586004B08ED00E92A791CCE2A22000C14210022
:10059600D201D20AD22A22000C102100D2014D0823
:1005A6002000CB004B08ED007910E92A20006908ED
:1005B600003A0319DF2AE92A680884000A3004028F
:1005C6000318E92A88310435203E82007918ED01A6
:1005D6000130E8070030E93D2100450820006902A6
:1005E600031DF92A2100440820006802031C0800A4
:1005F600FF302100C400FF30C5002000E801E901FA
:10060600080000302000CA000030C9000030C800D1
:100616000030C7003208CA003108C9003008C800D7
:100626002F08C7000030BA000030B9000030B8000B
:100636000030B7000030C0000030BF000030BE0000
:100646000030BD00C501C601CA1B332B4A08031D75
:100656003B2B4908031D3B2B0130480203183B2B5B
:100666004A08C0004908BF004808BE004708562B84
:100676000030A3000030A2000030A100FF30A0002F
:100686004A08A7004908A6004808A5004708A4008C
:1006960084316C24833120002308C0002208BF0067
:1006A6002108BE002008BD000030A3000030A200D3
:1006B6000030A100FF30A0004A08A7004908A600A4
:1006C6004808A5004708A4008331EA2383312000A7
:1006D6002008C7002108C800890D893B8909C9007F
:1006E600CA000030C4000030C3000030C200013030
:1006F600C1004608803AB30080303302031D852BC3
:1007060001304502031CB32B2000BB01BC013C0891
:10071600803AB3004608803A3302031D942B4508FD
:100726003B020318B32B20004108B3004208B40073
:100736004308B5004408B6000830B335B40DB50D0E
:10074600B60D890BA02B3608C4003508C300340843
:10075600C2003308C1000130BB070030BC3D8A2B04
:1007660020004008A3003F08A2003E08A1003D0863
:10077600A0004408A7004308A6004208A5004108B7
:10078600A4008631FB26833120002008B707210804
:10079600B83D2208B93D2308BA3DCA1BE12B4A08D9
:1007A600031DDC2B4908031DDC2B01304802031C0A
:1007B600E12B0130C5070030C63D272B3A08B200B1
:1007C6003908B1003808B0003708AF00080020002B
:1007D600AA01A31FFB2BA009A109A209A309A00A2C
:1007E6000319A10A0319A20A0319A30AAA01AA0A4C
:1007F600A71F0C2CA409A509A609A709A40A031971
:10080600A50A0319A60A0319A70A0130A800280891
:10081600AA060030AE000030AD000030AC0000305B
:10082600AB0023082204210420040319552CA90136
:10083600A90AA31B2A2C0130A035A10DA20DA30DD8
:10084600890B1F2C0130A8002808A9071C2C013091
:10085600AB35AC0DAD0DAE0D890B2B2C2308270245
:10086600031D3F2C22082602031D3F2C21082502CA
:10087600031D3F2C20082402031C4A2C2008A40236
:100886002108A53B2208A63B2308A73B2B140130D1
:10089600A336A20CA10CA00C890B4B2C0130A9028B
:1008A600031D2A2C2A080319632CAB09AC09AD09D0
:1008B600AE09AB0A0319AC0A0319AD0A0319AE0A4D
:1008C6002E08A3002D08A2002C08A1002B08A000CA
:1008D60008002000AA01A71F7D2CA409A509A609C6
:1008E600A709A40A0319A50A0319A60A0319A70A40
:1008F600AA01AA0AA31F8A2CA009A109A209A30971
:10090600A00A0319A10A0319A20A0319A30A2308B4
:100916002204210420040319C32CA901A90AA31B3C
:10092600A02C0130A035A10DA20DA30D890B952C8D
:100936000130A8002808A907922C23082702031DC6
:10094600AE2C22082602031DAE2C21082502031D0B
:10095600AE2C20082402031CB82C2008A40221086F
:10096600A53B2208A63B2308A73B0130A336A20CD1
:10097600A10CA00C890BB92C0130A902031DA02CD7
:100986002A080319D12CA409A509A609A709A40AAE
:100996000319A50A0319A60A0319A70A2708A3001B
:1009A6002608A2002508A1002408A00008003F3060
:1009B6002000A00020082200A0007F302000A00018
:1009C60020082200A1009F302000A000200822005D
:1009D600A200AF302000A00020082200A300BF30F4
:1009E6002000A00020082200A400CF302000A00094
:1009F60020082200A500D7302000A00020082200F1
:100A0600A600DF302000A00020082200A700E73063
:100A16002000A00020082200A800EB302000A00043
:100A260020082200A900EF302000A00020082200A4
:100A3600AA00F1302000A00020082200AB00F3300D
:100A46002000A00020082200AC00F5302000A00005
:100A560020082200AD00F7302000A0002008220068
:100A6600AE00F8302000A00020082200AF00F930C8
:100A76002000A00020082200B000FA302000A000CC
:100A860020082200B10008003F302000A000200806
:100A96002100A0007F302000A00020082100A10036
:100AA6009F302000A00020082100A200AF302000C7
:100AB600A00020082100A300BF302000A0002008CD
:100AC6002100A400CF302000A00020082100A500AE
:100AD600D7302000A00020082100A600DF3020002B
:100AE600A00020082100A700E7302000A000200871
:100AF6002100A800EB302000A00020082100A9005A
:100B0600EF302000A00020082100AA00F1302000CC
:100B1600A00020082100AB00F3302000A000200830
:100B26002100AC00F5302000A00020082100AD0017
:100B3600F7302000A00020082100AE00F830200089
:100B4600A00020082100AF00F9302000A0002008F6
:100B56002100B000FA302000A00020082100B100DA
:100B660008002000AA002A087A07A000A101A10D0A
:100B76002008A2002108A3000030A31BFF30A40018
:100B8600A500210053082000A600210054082000DB
:100B9600A700210055082000A800210056082000C3
:100BA600A9000830A635A70DA80DA90D890BD52DCE
:100BB6002608A2042708A3042808A4042908A504D3
:100BC60025082100D600200024082100D500200099
:100BD60023082100D400200022082100D300530A54
:100BE600031D002E540A031D002E550A031D002E58
:100BF600560A031D002E0314080003100800F030E7
:100C06002000AB002530AC0062082B078600630885
:100C16002C3D87000108AD002D08EC006C08AB00E8
:100C26002B08ED000130E2070030E33D6303620468
:100C3600031D1F2EE201E3016C088531B4258631C0
:100C4600031C302E2100DF01E0018F310E27863193
:100C5600F0102000E801E901352E01302100DF0700
:100C66000030E03D210060086F02031D3C2E5F0846
:100C76006E0203180800DF01E0018F310E27F01025
:100C86002000E801E901080020006C08A000A1018D
:100C96002008A2002108A300782E20002208A10027
:100CA600A001FF3020042100EE00003020002104C6
:100CB6002100EF000800003020002204A000FF30D1
:100CC6002304A10021006E08200020052100EE006B
:100CD6006F08200021052100EF00080020006C08A5
:100CE600A0002008EE00F014080021006008003A79
:100CF60003197E2E892E5F08013A0319502E033AF6
:100D060003195E2E013A0319712E892E080022005E
:100D1600B900BA01BB013B08803A2000D1008030FF
:100D26005102031D992E123022003A0203180800C0
:100D360022003A08203E8600013087000108390665
:100D46000319B02EC02E20006C088131D82108006E
:100D560020006C088031A720080022003B08003ADA
:100D66000319B62EC02E3A08840006300402031872
:100D7600C02E88310435343E820001302200BA0785
:100D86000030BB3D8E2E08002000A60100306B020D
:100D9600023003196A02031CE42E6A08FF3EA10012
:100DA600FF306B3DA200F030A3002630A4002108DE
:100DB600230786002208243D87000108A500250890
:100DC600F12EF030A1002630A2006A082107860025
:100DD6006B08223D87000108A3002308A600260A07
:100DE6000319F72E7910080000308E31FF2608000F
:100DF60000302000AB000030AA000030A90000300F
:100E0600A800201C0E2F2408A8072508A93D26089F
:100E1600AA3D2708AB3D0130A435A50DA60DA70DAB
:100E2600890B0F2F0130A336A20CA10CA00C890B45
:100E3600162F2308220421042004031D042F2B0847
:100E4600A3002A08A2002908A1002808A00008007B
:100E56008531472587318431DA24873187318427E4
:100E660087318F31D82787318F31052787318F31E9
:100E7600182787318F317F27873122000C148F3155
:100E8600522787310318422F863102268731F01CFC
:100E9600522F20006E0886318A268731552F8631DB
:100EA60047268731873159278731422F20006D0821
:100EB6007A07A0002008ED0021005208031D682FC4
:100EC60020006D08240099000800F0302000A000E2
:100ED6002630A1006A082007A2006B08213DA30066
:100EE60022088600230887006D0881000130EA0782
:100EF6000030EB3D6B036A04031D0800EA01EB01B9
:100F060008007914FF302100C400FF30C500C70176
:100F1600C6010030CB000030CA000030C9000030E6
:100F2600C8008F316F2787312000203086000030BF
:100F3600870032308400003085001030B100160082
:100F46001A00B10BA22FB701B8012100D201CD01C1
:100F56002000E801E90108002000A201A3012308FE
:100F6600803AA00081302002031DBB2F00302202F0
:100F760003180800F0302000A0002530A100220848
:100F8600200786002308213D87008101F030A0005C
:100F96002630A1002208200786002308213D87006D
:100FA60081010130A2070030A33DB22F8F315F27A8
:100FB60087310318F82FF030F1002630F2002100B7
:100FC6005B08710786005C08723D870001082400F3
:100FD600910001302100DB070030DC3D5C035B043F
:100FE600031D0800DB01DC0108000130240091002C
:100FF600080001340034FF34FF348031DE288031AC
:10100600E9288031FA288131012981310829813185
:10101600182981311B2981311D2981311F298131EF
:1010260021298131232981312529813130298131B5
:101036005A2981317B2981319F298131FE298231CB
:101046000E2A8231242A82312C2A8231362A823192
:10105600412A82316C2A82318D2A8231B12A82312B
:10106600C62A8631A62E8631AB2E8631C62E86310D
:0A107600C62E8631C62E8631C62E26
:101DE8002000D601D401D501080072082000D800CF
:101DF8007108D70008002000A000200824009100E6
:101E080008002100101627009115921521001014C2
:101E18000B140800FF302100EE00FF30EF00200017
:101E2800EE018E31F42608000B138B138F319627A1
:101E38008F318F31B6270B178B1708002000A000B1
:101E48002003031D2A2F22000C14080022000C1066
:101E5800080021006C08E5076D08E63D6608F200F9
:101E68006508F1008E31F92608006400800101310F
:101E78000130FE020030FF3B7F087E040319003466
:101E88003A2F23008C018D018E0120008C018D01D9
:101E98008E0121008C018D018E010800200065084B
:101EA8006306031D592F64086206031D5D2F031482
:101EB80008000310080020006B0821005C06031DC1
:101EC800692F20006A0821005B06031D6D2F03148B
:101ED80008000310080052308600003087002030C8
:101EE80084000030850010302000B00016001A0071
:101EF800B00B7A2F0800701500302000E100003088
:101F0800E0000030DF000030DE00D601FF30D200F4
:101F1800FF30D300DD01D401D501D701D801DB01A1
:101F2800DC0108002400171319303D00A2003C0012
:101F38002208E0391638A20024001517951615084E
:101F4800F03904389500171694131413151221004C
:101F5800911520009111240011082000A0002008EC
:101F6800A100080024001F131B303D0092001A3006
:101F78009F003C001F08E0390F389F0024001D1700
:101F88009D161D08F03901389D001F169C131C135F
:101F98001D1221009215200092112400190820001A
:101FA800A0002008A10008002000E401E501EA01E2
:101FB800EB018731AF278F3132001F08F03907381E
:101FC8009F00C0309E058F314527FF3024008E00CA
:101FD800FF308D00FF308C0021000D170D160E17F5
:101FE80027000D120D138E1221008D1627008D1259
:101FF8008D138C100C1108000134003401340034A6
:020000040001F9
:08000E008CFFD2FDFFDFFFFFB4
:10E00000FF00FF00FF00FF000100450043004F003C
:10E0100042004F00540020004C00430043002E00FB
:10E02000FF00FF00FF00FF000200000000000000F2
:10E030000100FF00FF00FF00FF00020000000000E1
:10E0400000000100FF00FF00FF00FF0003000300CD
:10E05000010000002800030002000000640003002B
:10E06000030000004800030004000000C800030093
:10E07000050000000000030006000000520003003D
:10E080000700000000000200080000000200090074
:10E09000000002000A00010003000B000000000065
:10E0A00003000C000000000003000D000000B4009D
:10E0B00003000E000000000003000F00000000003D
:10E0C0000300100000000000030011000000000029
:10E0D0000300120000000000030013000000000015
:10E0E000FF00FF00FF00FF00FE0000000000000036
:10E0F0000000000000000000000000000000000020
:10E10000000000000000000000000000000000000F
:10E1100000000000000000000000000000000000FF
:10E1200000000000000000000000000000000000EF
:10E1300000000000000000000000000000000000DF
:10E1400000000000000000000000000000000000CF
:10E1500000000000000000000000000000000000BF
:10E1600000000000000000000000000000000000AF
:10E17000000000000000000000000000000000009F
:10E18000000000000000000000000000000000008F
:10E19000000000000000000000000000000000007F
:10E1A000000000000000000000000000000000006F
:10E1B000000000000000000000000000000000005F
:10E1C000000000000000000000000000000000004F
:10E1D000000000000000000000000000000000003F
:10E1E000000000000000000000000000000000002F
:00000001FF
