:0400000080315828CB
:100008007E14803120007F08F600911D2A28F030E8
:10001800F2002430F30044087207F4004508733DE9
:10002800F50074088600750887002400110881000F
:1000380085315B25803101302000C4070030C53D83
:1000480045034404031D2A28C401C50135080319C2
:10005800921D4A28F030F2002630F3004A08720751
:10006800F4004B08733DF500740886007508870096
:1000780024001908810001302000CA070030CB3D58
:100088004B034A04031D4A28CA01CB012100101C56
:100098004F2886317E2620009111921110101012DF
:1000A8007608FF007E10090080315A2886318426A0
:1000B8008031EE00863185268031EF00F0308400F3
:1000C800243085000030FE000330FF0086314726CB
:1000D8008031F701F9012030840000308500363086
:1000E800FE000030FF00863147268031A0308400B2
:1000F800003085004530FE000030FF00863147267D
:100108007E10200084316A2C2100EB006B0820004F
:10011800E800E90168082100E900200069082100D9
:10012800EA006B082000E800E901EA01EB016B082E
:100138002100E80020006A082100E7002000690883
:100148002100E600200068082100E500F8183F2992
:100158004F2922000C14210069082000E900E80159
:100168006808BC006908BD004F2922000C10210056
:10017800690820003C04A00021006A0820003D0412
:10018800A1004F2921006B082000E8006808A200A0
:100198004F2921006B082000E8006808A3004F29B8
:1001A80021006B082000E8006808A4002408300635
:1001B80003194F298531FF258031F8104F298531E2
:1001C800BD258031200026083B2925083B29280821
:1001D8003B2927083B292A083B2929083B292100D4
:1001E8006B082000E8006808AB002B08863153260E
:1001F80080314F2901302000AC070030AD3D003080
:10020800AE3D0030AF3D2C08E8002D08E9002E086F
:10021800EA002F08EB001830EB36EA0CE90CE80C82
:10022800890B102936292C08E8002D08E9002E082A
:10023800EA002F08EB001030EB36EA0CE90CE80C6A
:10024800890B202936292C08E8002D08E9002E08FA
:10025800EA002F08EB000830EB36EA0CE90CE80C52
:10026800890B30296808EC006C083D292C08E80047
:100278006808D4004F2920004708003A0319452987
:100288004F29460884001030040203184F2985318D
:1002980004359D3E820001302000C6070030C73D6E
:1002A80021084702031D5A2920084602031C08009A
:1002B800BC01BD0100302100E2000030E100003047
:1002C800E0000030DF00FF302000A000FF30A10078
:1002D800C601C701F81408002000E9006908DD001C
:1002E800DE015D08E7005E08E8006908DD00DE0160
:1002F800DF01E0016008E5005F08E4005E08E30054
:100308005D08E2008331FC238131F818262A362A59
:100318008531D425813120006708DE00DD01FF30FA
:100328005D042100D600003020005E04AA290030B8
:100338006704DD00FF306804DE0021005608200055
:100348005D052100D600570820005E052100D70072
:10035800B8296908DD005D082100D800B8296908B6
:10036800DD005D082100D90020006908222A6908FB
:10037800013EDD005D08B000212A01302100DA07C6
:100388000030DB3D0030DC3D0030DD3D5A08200008
:10039800DD0021005B082000DE0021005C08200051
:1003A800DF0021005D082000E0001830E036DF0C97
:1003B800DE0CDD0C890BDA29102A21005A082000EE
:1003C800DD0021005B082000DE0021005C08200021
:1003D800DF0021005D082000E0001030E036DF0C6F
:1003E800DE0CDD0C890BF229102A21005A082000A6
:1003F800DD0021005B082000DE0021005C082000F1
:10040800DF0021005D082000E0000830E036DF0C46
:10041800DE0CDD0C890B0A2A5D08E1006108242A3C
:1004280021005A082000222A781C1D2AB501B50A85
:100438001E2AB50122000C1020003008DD005D08DE
:10044800D400362A20004708003A03192C2A362AF5
:10045800460884000A3004020318362A8531043518
:10046800EB3E820001302000C6070030C73D210066
:1004780056082000DD005D08E6002100570820002E
:100488004702031D4B2A2100560820004602031C80
:100498000800FF302100D600FF30D7002000C60139
:1004A800C701F81408003F302000D6005608210084
:1004B800B2007F302000D60056082100B3009F30DC
:1004C8002000D60056082100B400AF302000D60026
:1004D80056082100B500BF302000D600560821007C
:1004E800B600CF302000D60056082100B700D7301C
:1004F8002000D60056082100B800DF302000D600C2
:1005080056082100B900E7302000D600560821001F
:10051800BA00EB302000D60056082100BB00EF30AF
:100528002000D60056082100BC00F1302000D6007B
:1005380056082100BD00F3302000D60056082100DF
:10054800BE00F5302000D60056082100BF00F73065
:100558002000D60056082100C000F8302000D60040
:1005680056082100C100F9302000D60056082100A5
:10057800C200FA302000D60056082100C300080047
:100588003F302000D60056082100C4007F302000EC
:10059800D60056082100C5009F302000D600560816
:1005A8002100C600AF302000D60056082100C70041
:1005B800BF302000D60056082100C800CF302000E8
:1005C800D60056082100C900D7302000D6005608AA
:1005D8002100CA00DF302000D60056082100CB00D9
:1005E800E7302000D60056082100CC00EB30200070
:1005F800D60056082100CD00EF302000D60056085E
:100608002100CE00F1302000D60056082100CF008E
:10061800F3302000D60056082100D000F530200025
:10062800D60056082100D100F7302000D600560821
:100638002100D200F8302000D60056082100D3004F
:10064800F9302000D60056082100D400FA302000E6
:10065800D60056082100D5000800F0302000DF0041
:100668002430E00042085F0786004308603D8700A9
:100678000108E1006108F9007908DF005F08D4008B
:100688000130C2070030C33D7908843134248331F6
:10069800031C5F2B22000C102000BE01BF01C20109
:1006A800C30186316826833177102000C401C50153
:1006B800C601C701642B01302000BE070030BF3DD2
:1006C8003F086F02031D6A2B3E086E0203180800DC
:1006D800BE01BF01C201C301863168267710200020
:1006E800C401C501C601C701080079082000D60069
:1006F800D7015608D8005708D9009E2B5808D700AC
:10070800D601FF305604EE0000305704962B003017
:100718005804D600FF305904D7006E085605EE007D
:100728006F085705EF00B12B7908D6005608D50099
:100738007714B12B3F08003A0319A32BB12B3E08BD
:10074800003A0319B12B013A0319822B033A031912
:100758008B2B013A0319982BB12B43034204031D39
:10076800B72BC201C30141034004031D0800C001A7
:10077800C10108002100EC00ED01EE016E08803A8D
:100788002000ED0080306D02031DCD2B12302100BA
:100798006D020318080021006D08B23E860087012B
:1007A80001086C060319E12BF52B790881317021BA
:1007B8000800790880318820080021006E08003A76
:1007C8000319E72BF52B6D08003A0319D92B013AC9
:1007D8000319DD2B033A0319FB2B013A0319FB2BF1
:1007E800F52B01302100ED070030EE3DC22B08004B
:1007F8002000DC0100304B02023003194A02031CBE
:10080800192C4A08FF3ED700FF304B3DD800F03086
:10081800D9002630DA0057085907860058085A3D8B
:1008280087000108DB005B08262CF030D700263053
:10083800D8004A08570786004B08583D870001082A
:10084800D9005908DC005C0A03192E2C22000C146C
:100858007810080022000C10003086317826080035
:100868002000DE005E08D600D701D801D90136087D
:10087800DA003708DB003808DC003908DD0008300A
:10088800DA35DB0DDC0DDD0D890B442C5A08D60456
:100898005B08D7045C08D8045D08D9045908B90076
:1008A8005808B8005708B7005608B600360A031D9E
:1008B800682C370A031D682C380A031D682C390A6E
:1008C800031D682C03140800031008008231C42299
:1008D80084318231572284318531D4258431843161
:1008E8009824843186317126843186315E2684319C
:1008F8008431ED24843122000C1486312026843181
:100908000318812C833131238431771C912C2000EA
:1009180055088331BE238431942C83317923843163
:10092800853115258431812C2000C401C501CA01F7
:10093800CB018431C324843132001F08F0390738D1
:100948009F00C0309E0586312D26FF3024008E0082
:10095800FF308D00FF308C0021000D170D160E178B
:1009680027000D120D138E123F3024008C00210039
:100978008D1627008D128D138C100C110800200085
:10098800D801D9015908803AD60081305602031D92
:10099800CF2C0030580203180800F0302000D60091
:1009A8002430D7005808560786005908573D870055
:1009B8008101F030D6002630D70058085607860047
:1009C8005908573D870081010130D8070030D93DCB
:1009D800C62C86311026843120005630860000301F
:1009E800870020308400003085001030E7001600B2
:1009F8001A00E70BFB2CF8140030AF000030AE00F3
:100A08000030AD000030AC00A401FF30A000FF3082
:100A1800A100AB01A201A301A501A601A901AA0198
:100A2800080020003508031D1D2D540824009900D6
:100A38000800F0302000D6002630D7004A085607B4
:100A4800D8004B08573DD900580886005908870038
:100A5800540881000130CA070030CB3D4B034A04DB
:100A6800031D0800CA01CB01080024001F131B3016
:100A78003D0092001A309F003C001F08E0390F38F3
:100A88009F0024001D179D161D08F03901389D0090
:100A98001F169C131C131D12210092152000921181
:100AA800240019082000D6005608D700080086310F
:100AB8003A26853103187A2DF030F0002630F100FF
:100AC80020004008700786004108713D8700010832
:100AD8002400910001302000C0070030C13D4103CF
:100AE8004004031D0800C001C10108002400910151
:100AF80008002400171319303D00A2003C0022080A
:100B0800E0391638A2002400151795161508F03993
:100B18000438950017169413141315122100911513
:100B280020009111240011082000D6005608D70093
:100B380008008031AD288031B9288031C62880313D
:100B4800CD288031D4288031E3288031E9288031CC
:100B5800EB288031ED288031EF288031F128803171
:100B6800F3288031FE2881311729813127298131E5
:100B78003A2986311026853120005630860000300B
:100B8800870020308400003085001030E700160010
:100B98001A00E70BCB2D4F08A6004E08A500080049
:100BA8007814FF302100D600FF30D700D901D801D2
:100BB8000030DD000030DC000030DB000030DA00FF
:100BC8002000B501B001C601C701F8140800813141
:100BD8008C2981319B298131AD298131B32981311A
:100BE800BB298131C1298131E1298131F92982313A
:100BF800142A8231182A00302000AF000030AE00DD
:100C08000030AD000030AC00A401FF30A000FF3080
:100C1800A100A201A301080020308600003087004F
:100C2800563084000030850010302000E6001600A1
:100C38001A00E60B1B2E0800200045084306031D7A
:100C4800272E44084206031D2B2E03140800031008
:100C5800080023008C018D018E0120008C018D017C
:100C68008E0121008C018D018E01080020004B08A7
:100C78004106031D412E4A084006031D452E031454
:100C88000800031008006400800101310130FE02F1
:100C98000030FF3B7F087E0403190034482E2000F3
:100CA800D6005603031D5B2E22000C1408002200F8
:100CB8000C1008000B138B1385317D258631853187
:100CC80039250B178B170800FF302000EE00FF3086
:100CD800EF00D5018531FF250800210010161014FA
:100CE8000B142700931508002000D600560824008E
:100CF8009100080020004C08CE074D08CF3D0800A1
:0C0D0800FF34FF340134003401340034A7
:020000040001F9
:08000E008CFFD3FDFFFFFFFF93
:10E000000000000000000000000000000000000010
:10E010000000000000000000000000000000000000
:10E0200000000000000000000000000000000000F0
:10E0300000000000000000000000000000000000E0
:10E0400000000000000000000000000000000000D0
:10E0500000000000000000000000000000000000C0
:10E0600000000000000000000000000000000000B0
:10E0700000000000000000000000000000000000A0
:10E080000000000000000000000000000000000090
:10E090000000000000000000000000000000000080
:10E0A0000000000000000000000000000000000070
:10E0B0000000000000000000000000000000000060
:10E0C0000000000000000000000000000000000050
:10E0D0000000000000000000000000000000000040
:10E0E0000000000000000000000000000000000030
:10E0F0000000000000000000000000000000000020
:10E10000000000000000000000000000000000000F
:10E1100000000000000000000000000000000000FF
:10E1200000000000000000000000000000000000EF
:10E1300000000000000000000000000000000000DF
:10E1400000000000000000000000000000000000CF
:10E1500000000000000000000000000000000000BF
:10E1600000000000000000000000000000000000AF
:10E17000000000000000000000000000000000009F
:10E18000000000000000000000000000000000008F
:10E19000000000000000000000000000000000007F
:10E1A000000000000000000000000000000000006F
:10E1B000000000000000000000000000000000005F
:10E1C000000000000000000000000000000000004F
:10E1D000000000000000000000000000000000003F
:10E1E000000000000000000000000000000000002F
:10E1F000000000000000000000000000000000001F
:00000001FF
